:100000000C9454080C9471080C9471080C943C33B3
:100010000C9471080C9471080C9471080C9471087C
:100020000C9471080C9471080C947C300C9454312D
:100030000C943B1F0C9471080C9471080C9471087B
:100040000C9471080C9471080C9471080C9471084C
:100050000C9471080C9458300C9471080C9471082D
:100060000C9471080C9471080C9471080C9471082C
:100070000C9471080C9471080C9471080C9471081C
:100080000C9471080C9471080C9471080C9471080C
:100090000C9471080C9471080C9471080C947108FC
:1000A0000C9471080C9471080C94710800021E1EC7
:1000B0001E1C1C7C684000000000000000000000C6
:1000C0000000000000000000000000000000000030
:1000D000000000000000E0F8FCFEFEF8FEFEF0F874
:1000E000FEFEFCFC7878F8B0A000000000000000E4
:1000F00000000000000003030301010101010303EC
:100100000F1F7F3706060703010000003838787894
:1001100030F020000000000000000000000000009F
:10012000C0C0C0808080800000000000000000008F
:10013000000101010000C0F0F0E0C8FCFCF0E0FCB0
:10014000FCFEFFFFFFFFCFCF737E1000000000001A
:100150000000000000100F0F0F0F07070303030339
:100160000101010101010303030000003878387028
:1001700070F000000000000000000000000000001F
:10018000000000000000000000000000000000006F
:1001900000010302000000C0E0E0E0F8F8E0FCFD30
:1001A000FFFFFFFE9E9EFEEC7000000000000000BE
:1001B0000000000000000003070F1F3F1F07070398
:1001C00003030F0F010101000000000000000E0EEC
:1001D0000E0E1CFCD8800000000000000000000093
:1001E000000000000000000000000000000000000F
:1001F0000000000000000000F0FCFCF0FCFCF0FE41
:10020000FEFCFCFC78F8B8E00000000000000000F4
:1002100000000000000000000003030707070F3B79
:100220001F0F070606070301000000000000000082
:1002300000003E5B4F5B3E003E6B4F6B3E001C3E42
:100240007C3E1C00183C7E3C18001C577D571C004F
:100250001C5E7F5E1C0000183C180000FFE7C3E72F
:10026000FF00001824180000FFE7DBE7FF0030481C
:100270003A060E00262979292600407F0505070049
:10028000407F05253F005A3CE73C5A007F3E1C1C3E
:100290000800081C1C3E7F0014227F2214005F5FB0
:1002A000005F5F0006097F017F00006689956A0094
:1002B00060606060600094A2FFA2940008047E0465
:1002C000080010207E20100008082A1C0800081CC6
:1002D0002A0808001E10101010000C1E0C1E0C0026
:1002E00030383E383000060E3E0E0600000000009A
:1002F000000000005F000000000700070000147FFE
:10030000147F1400242A7F2A120023130864620039
:10031000364956205000000807030000001C224107
:1003200000000041221C00002A1C7F1C2A00080833
:100330003E08080000807030000008080808080027
:100340000000606000002010080402003E51494592
:100350003E0000427F400000724949494600214169
:10036000494D33001814127F1000274545453900C8
:100370003C4A4949310041211109070036494949A0
:100380003600464949291E000000140000000040C4
:100390003400000000081422410014141414140046
:1003A0000041221408000201590906003E415D592E
:1003B0004E007C1211127C007F49494936003E41B3
:1003C000414122007F4141413E007F49494941006E
:1003D0007F09090901003E41415173007F08080867
:1003E0007F0000417F4100002040413F01007F0825
:1003F000142241007F40404040007F021C027F00E9
:100400007F0408107F003E4141413E007F090909F9
:1004100006003E4151215E007F0919294600264908
:100420004949320003017F0103003F4040403F0043
:100430001F2040201F003F4038403F006314081435
:1004400063000304780403006159494D4300007FB1
:1004500041414100020408102000004141417F0059
:10046000040201020400404040404000000307082D
:1004700000002054547840007F2844443800384419
:1004800044442800384444287F0038545454180009
:1004900000087E0902001824241C78007F08040448
:1004A000780000447D4000002040403D00007F1067
:1004B0002844000000417F4000007C04780478005C
:1004C0007C08040478003844444438007C18242410
:1004D0001800182424187C007C08040408004854E0
:1004E0005454240004043F4424003C4040207C0039
:1004F0001C2040201C003C4030403C004428102878
:1005000044004C9090907C004464544C440000089B
:10051000364100000000770000000041360800006E
:100520000201020402003C2623263C0000000000D9
:10053000000000000000000000000000C0E0F0F833
:10054000F81800C0F0FCFEFFFFFFFFFFFFFF7E007A
:10055000000000000000000080C0E0E0E0E0E0E01B
:10056000E0E0C0800000000080C0E0E0E0E0E0E00B
:10057000E0E0C080000000E0E0C0C0E0E0E0E000BB
:1005800000E0E0C0C0E0E0E0E0E0C080000000008B
:1005900080C0E0E0E0E0E0E0E0E0C08000000000DB
:1005A00000000000000000000000E0F0F0F0E0ECCF
:1005B000EEF7F37020007C7C7C7E007E7E7E7F7F69
:1005C0007F000080C0E07E5B4F5BFEC00000C0008B
:1005D000DCD7DEDEDED7DC00C0000000000000005B
:1005E000000000000000000000000000000000000B
:1005F0000000000000F8FCFEFFE000FFFFFFFFFF2F
:10060000FF80FFFFFFFFFFFFFFFFFF1F070100004D
:1006100000000000000000FFFFFF8100000000005C
:100620000081C3C3C30000FFFFFF81000000000082
:100630000081FFFFFF0000FFFFFF0100000000003E
:1006400000FFFFFF010000000001FFFFFF0000FFAF
:10065000FFFF9D1C1C1C1C1C1C9DDFDFDF0000001D
:10066000000000000000000000000F1F3F7F7F7FA0
:100670007F7F3F1E0C001F1F1F3F003F3F3F7F7FBC
:100680007F00307B7F7830202030787F3B00030074
:100690000F7F0F0F0F7F0F0003000000000000000E
:1006A000000000000000000000000000000000004A
:1006B0000000000000030F1F3F3F3F3F1F1F3F3F51
:1006C0007F7F7F3F3F1F3F7F7F7F7F7C7878381C15
:1006D0000F000000000000000103070707070707DD
:1006E00007070301000000000103070707070707CA
:1006F00007070301000000070707000000000000D3
:1007000000070707000000000000070707000000BF
:100710000103070707070707070703010000000099
:1007200000000000000000000000000000000000C9
:1007300000000000000000000000000000000000B9
:1007400000000000000000000000000000000000A9
:100750000000000000000000000000000000000099
:1007600000000000000000000000000005010980FA
:10077000A101850319012AB700150126B7009501CB
:1007800075108100C0050C0901A101850419012A19
:10079000A002150126A002950175108100C0050177
:1007A0000906A1018506050719E029E715002501BD
:1007B0009508750181020507190029EF150025012B
:1007C00095F0750181020508190129059505750146
:1007D0009102950175039101C005010906A101056A
:1007E0000719E029E7150025019508750181029593
:1007F00001750881010507190029FF150026FF0072
:1008000095067508810005081901290515002501BF
:10081000950575019102950175039101C009023B8F
:1008200000020100A0FA090400000103010100090F
:10083000211101000122440007058103080001097C
:100840000401000103000000092111010001226DD3
:1008500000070582032000011201000200000008C9
:10086000534601000100010200010C0343006F0028
:1008700072006E0065000000100366006F006F00DC
:100880007300740061006E0000000403090400009E
:100890000000000000000000000000000000000058
:1008A0000000000000000000000000000000000048
:1008B00000007E0F00D4FFFFFFC70000007800009B
:1008C0000000000000002A2B2800000000000000AB
:1008D00000000000000000000029000000002C1EA5
:1008E0003420212224342627252E362D3738271E62
:1008F0001F202122232425263333362E37381F0488
:1009000005060708090A0B0C0D0E0F10111213141F
:1009100015161718191A1B1C1D2F3130232D3504DD
:1009200005060708090A0B0C0D0E0F1011121314FF
:1009300015161718191A1B1C1D2F3130354C0001C4
:10094000010101010101010102020202020202028F
:100950000203030303030303030404040404040461
:100960000505050505060606060607070707070825
:10097000080808090909090A0A0A0B0B0B0C0C0CD8
:100980000D0D0D0E0E0E0F0F0F1010111111121272
:1009900013131414151516161717181819191A1AEF
:1009A0001B1B1C1D1D1E1E1F202021222223242450
:1009B000252626272829292A2B2C2D2D2E2F30318C
:1009C0003232333435363738393A3B3C3D3E3F409E
:1009D0004142434445464748494A4C4D4E4F505189
:1009E0005354555658595A5B5D5E5F616264656643
:1009F00068696B6C6D6F7072737577787A7B7D7ECA
:100A00008082838587888A8C8E8F91939596989A19
:100A10009C9EA0A2A3A5A7A9ABADAFB1B3B5B7BA31
:100A2000BCBEC0C2C4C6C9CBCDCFD1D4D6D8DBDD05
:100A3000DFE2E4E7E9EBEEF0F3F5F8FAFDFF00DAC8
:100A40000281FFD9F1DB20A4A62EAF00A0C0D30005
:100A500000A1C8D30000AED580A81F408D1420008F
:100A600000AE000000000000000080000000000058
:100A700000000000FFFFFFFFFFFFFFFFFFFFFFFF82
:100A8000FFFFFFFFFFFF7F3F1F1F0F0F0F1F1F3FC6
:100A9000FFFFFFFF0000000000000000000000005A
:100AA0000000000000000000000000000000000046
:100AB0000000000000000000000000000000000036
:100AC0000000000000000000000000000000000026
:100AD0000000000000000000000000000000000016
:100AE000000000000000000000005F464646464649
:100AF00046C60000FFFF7F3F3F3FFF7F0F0301011E
:100B000000C0FC1F03000000000000000080C0F0D7
:100B1000FFFFFFFF000000000080C0603030303079
:100B20002060C0800000C0E060303030302060E0E5
:100B3000C0000000F0E0603030300000F0E06030D5
:100B400030303060E0C0000080C060203030303095
:100B500060C08000000000000000000000000000F5
:100B60000000000000000000000066E6E4A4BCBC39
:100B7000B8190000FFE3000000000F300000000083
:100B800000011F0000000000000000007CFFFFFFCC
:100B90007F1FFFFF00000000001F396040C0C0C081
:100BA0004060301800073F386040C0C0C04060302F
:100BB0003F0F0000FF00000000000000FF7F00006A
:100BC000000000007FFF00001F3F6242C2C2C2421D
:100BD000623303000000000000000000000000007D
:100BE000000000000000000000000C0404060602E3
:100BF00003030000FFFFFFFEFCF8F8F8FCFEFCF822
:100C0000F8F8F8F8F8FCFCF8F8F0F0F0F0F0F8F884
:100C1000FCFEFFFF000000000000000000000000DC
:100C200000000000000000000000000000000000C4
:100C300000000000000000000000000000000000B4
:100C400000000000000000000000000000000000A4
:100C50000000000000000000000000000000000094
:100C60000000556E646566200A0020454D4F0A203D
:100C70004A49530A20320A0020454D4F0A204A496A
:100C8000530A004D415955530A200A20004D41593D
:100C900055530A204341500A2000200A00204456A0
:100CA0004F0A2052414B0A002041444A0A20555322
:100CB000540A00204E41564920474154450A00201D
:100CC00053494D42204F4C530A004D415955530A48
:100CD000200A20004D415955530A204341500A2013
:100CE00000200A00205157450A205254590A004C4E
:100CF000415945520A0000AF005714001A0008007D
:100D0000150017002F2204001600070009000A0032
:100D100003571D001B00060019000500000000001D
:100D20000000E300C1522C002A00130012000C0046
:100D300018001C00280033000F000E000D000B00EF
:100D40002B003800370036001000110000000000B2
:100D500000000157C2522C0029002D001F02200262
:100D600021026400E1004B0052004E0030022402D8
:100D7000E000500051004F003500008000000000EE
:100D80000000E30001002C002A00270226022502B1
:100D90002302220228000180310034002E022E009E
:100DA0002B001414310234021E022D020000000038
:100DB00000000157C3522C0029004B0052004E0086
:100DC00076004600E100500051004F0079000257C4
:100DD0000157B2006700A800AA00A90000000000A7
:100DE0000000E300C4522C002A00570020001F001E
:100DF0001E00540028005600230022002100550048
:100E0000E0002700260025002400850000000000E7
:100E100000004C0001002C002B782C782D782E78C7
:100E20002F783078217823782578277829783178B9
:100E300022782478267828782A78327800000000F2
:100E40000000E30001002C0030782F782E782D78F8
:100E50002C782B7828002978277825782378217812
:100E600020782A78287826782478227800000000D4
:100E70000000C55201002C0000572D00360037003D
:100E800013001C002F2204001200080018000C00A0
:100E90000357360214000D000E001B000000000076
:100EA0000000E30001002C002A000F0015000600DE
:100EB0000A00090028001600110017000B000700A7
:100EC0002B001D0019001A00100005000000000092
:100ED0000000015701002C002900028004800680D8
:100EE000058007801080408011801A800D8012805C
:100EF000258014802A8031801E800E800000000032
:100F000000004180C6522C002A000C8003800A8019
:100F100009800480280022802680178015802E807A
:100F20002B002880278021800F800880000000008F
:100F30000000010001002C0020802B802C803280DA
:100F40000B80198043803480368038802480138061
:100F50003380358037803C80188029800000000075
:100F60000000428001002C002A001D801C801B8094
:100F70001680238028003A803D80398030802F8081
:100F80002B003B803F803E802D801F8000000000B2
:100F90000000010001002C005C0000005E00000069
:100FA00000F6010002F6010001F6010064270000CE
:100FB0000DF601002DF601000AF6010012F60100FF
:100FC00018F6010095F4010029F601004CF4010027
:100FD00014F601000FF601007B26000009F601005F
:100FE0004DF401004EF401004FF601000CF6010033
:100FF000B6F3010033F601004CF6010022F60100C1
:101000000EF6010048F6010049F601004AF601001B
:10101000A9F4010040F401000C27000094F4010041
:1010200034F6010005F60100AFF4010015F60100E9
:101030001CF601001EF601000BF601004FF4010042
:1010400031F6010008F6010007F601004BF401003B
:101050000026000014F3010080F4010023F90100D0
:1010600010F9010000F4010004F4010018F401007B
:1010700015F401000EF401007AF3010042F90100B9
:101080007EF30100AEF301006EF40100BBF4010039
:10109000B2F40100C1F6010016F601004AF40100A5
:1010A000CBF301003EF4010011241FBECFEFDAE0C4
:1010B000DEBFCDBF12E0A0E0B1E0E8E7FBE602C092
:1010C00005900D92A03DB107D9F727E0A0EDB2E061
:1010D00001C01D92AB35B207E1F70E94502C0C9471
:1010E0005B350C9400009C01FB019A9581159F4192
:1010F00020F5D901AA27B270832F8170B901662724
:101100007470A9014427587034FF0DC08295807F08
:10111000AB2B09F08062672B09F08064452B09F046
:10112000806809950895AB2B09F08260672B09F060
:101130008460452BB1F38860F4CF80E0F2CF982F24
:1011400082958F70882311F0982F84E0292F26959F
:101150002695222311F08E5F922F969591118F5F25
:101160000895809314070895292F983058F58630F4
:1011700048F590E036E0239F800D911D1124282F23
:101180002770E1E001C0EE0F2A95EAF740E050E059
:10119000887F8554994F70E0DC01A40FB51FFC9146
:1011A0009B01042E02C0369527950A94E2F7217020
:1011B00021952F272E232F272C934F5F5F4F4830E9
:1011C000510551F70895983050F5863040F5282F95
:1011D00030E086E0989F200D311D1124922F9770EA
:1011E00060E070E080E0287F2554394FF901E60F78
:1011F000F71F408150E0092E02C0569547950A948A
:10120000E2F741705527062E01C0440F0A94EAF711
:10121000842B6F5F7F4F6830710541F7089580E040
:10122000089580911B0790911A07981301C00895A3
:101230008F5F8770FACF8091110790911907892BE2
:10124000509112075523C1F0909151019923A9F0B3
:101250009091170797FF11C09DE12CED32E040E01F
:10126000F90160812F5F3F4F61114F5F9150C0F7CF
:10127000411110921207852B089595E024ED32E07C
:10128000EECF90911107982B909311070895982F06
:10129000909580911107892380931107089590916B
:1012A000180792FF05C090911207981380931207B8
:1012B00008957830B8F46630A8F48730B0F4E62F9B
:1012C000F0E096E0799FE00DF11D112490E3899FF5
:1012D000E00DF11D1124EE0FFF1FE850F34F859133
:1012E0009491089580E090E0089581E0FCCF803EE5
:1012F0009105D1F1C8F48133910509F47FC048F418
:101300008932910509F46FC08A32910509F47DC0D4
:10131000089589339105E1F082389105C9F085334C
:10132000910509F45BC00895843E9105D1F148F41C
:10133000823E910531F1833E910541F181EE90E0CD
:101340000895863E9105C1F1873E9105E1F108952A
:10135000209117072370211165C02091180723FFE2
:1013600014C089E290E008952091170720FD43C042
:101370003091180730FF09C024FF4EC080E090E094
:1013800008952091170722FDF7CF089520911707A0
:1013900022FD45C03091180730FD44C024FFF5CF31
:1013A000EDCF2091180721FFF0CF8091170784FD22
:1013B000E5CF87EE90E008952091170723FFE5CF52
:1013C00024FDDCCFF6CF2091170723FD2EC03091EE
:1013D000180731FFE3CF84EE90E0089520911707BE
:1013E00025FFD3CFBECF2091170725FD21C0209127
:1013F000180723FFCACF89E390E0089520911707CB
:1014000026FFC3CF8AE290E008952091170726FFB8
:10141000BCCF81E390E0089583EE90E0089582EEE2
:1014200090E0089580EE90E0089586EE90E00895B3
:1014300085E390E0AACF9091170792FF10C041E09A
:10144000282F2471243009F040E031E0282F287142
:10145000283009F030E0431711F02CE0822793FF89
:1014600010C041E0282F2471243109F040E031E020
:10147000282F2871283109F030E0431711F02CE0B3
:1014800082273091180730FF10C051E0282F2171BA
:10149000213009F050E041E0282F2871283009F070
:1014A00040E0541711F029E0822731FF10C041E0DD
:1014B000282F2171213109F040E031E0282F2871D7
:1014C000283109F030E0431711F029E0822794FD1C
:1014D000877E08951F93CF93DF930E947709EC01D5
:1014E000811522E5920708F053C0811540E5940765
:1014F00008F0DDC0803E9105F8F48D3C910508F0C0
:10150000AEC0883A910580F4853A910508F099C0FB
:101510008130910521F00497813A910550F4CE0174
:10152000DF91CF911F910895885A91094B9708F444
:101530008BC0C0E0D0E0F3CF811550E49507F8F4FC
:10154000C11580E2D80708F0CBC0C83ED10538F3FA
:10155000CE019A9581159F4160F78D2F0E941B0A3D
:10156000182FCE0199270E947709212F30E0322FC2
:101570002227E901CC27DF71C82BD92BD0CF99279F
:101580000E947709CC27DF70C82BD92BD06AC7CF30
:10159000803842E59407C8F5803652E5950708F093
:1015A00067C0C03482E5D807B0F08C2F8695869549
:1015B000877020E2829FC0011124C37021E030E0D7
:1015C000A90102C0440F551FCA95E2F7EA01C82BD2
:1015D000D92BDC68A4CFC03252E5D50708F041C052
:1015E0008C2F8695869520E2829FC0011124C370BE
:1015F00021E030E0A90102C0440F551FCA95E2F76F
:10160000EA01C82BD92BDD688ACF803C52E59507CB
:1016100060F48F71C03AD24508F03FC090E0982F37
:101620008827EC01C46FD06A7ACF805C924580979E
:1016300008F07FCFDC2FCC27CC27DF71C06FD06ABA
:101640006ECFA497D0646BCFC85AD0E0CC0FDD1F0B
:10165000C756DD4F0990D881C02DD46460CFD065C6
:101660005ECFCF71D0E0DC2FCC27C16FD06A57CFCF
:1016700086958695877020E2829FC0011124C370F1
:1016800021E030E0A90102C0440F551FCA95E2F7DE
:10169000EA01C82BD92BDA6842CF0E941B0AC82F57
:1016A000D0E0DC2FCC27CC27DF71D06238CF8F7110
:1016B0000E941B0A65E0D695C7956A95E1F7CF7041
:1016C000D0E0DC2FCC27282F30E084FF05C054E089
:1016D000220F331F5A95E1F7C22BD32BD0691FCFAE
:1016E0008D2F8F710E941B0A182FCE0199270E94FF
:1016F0007709212F30E0322F222722273F71282B14
:10170000392BE901D2CFA0E0B0E0E9E8FBE00C948E
:1017100076347C010091150780911407082BC7E0EF
:10172000D0E010E0C8010C2E02C0959587950A9470
:10173000E2F780FD09C02197A8F7D12C8D2DCDB7F8
:10174000DEB7E7E00C949234DC2EB7018C2F0E94B8
:1017500059090E946A0A019771F3F0CF0F931F9302
:10176000CF93FC01858100811181882391F066234C
:1017700081F0C8010E94830BC82F682FC8010E9406
:10178000B408B8018C2F0E945909CF911F910F9175
:101790000895C8010E94E308C82FF3CFCF93DF93C9
:1017A000D82FC92F0E94830B6D2F7C2F0E945909BF
:1017B0000E946A0ADF91CF910895FC0184818823F9
:1017C000A1F0808191810E94CE0B282F92959F706D
:1017D000963091F060F4925F9F70923030F481E027
:1017E000203F79F030F4283E30F080E004C09A5F6A
:1017F000F3CF243FD1F7089581E0283E18F0213F30
:10180000F9CF0895089580E00895F894E82FE295BF
:10181000EF70F0E041A18F7021E030E0B90102C02B
:10182000660F771F8A95E2F7CB01962F9095942348
:1018300091A392A1892B82A378940895A0E0B0E0AF
:10184000E4E2FCE00C947334E82FF0E0E25CF64F45
:10185000711109C0E4918E2F7E2F6E2FCDB7DEB7A8
:10186000EAE00C948F34262F30E0C72FD0E0F491BB
:10187000EF2F86E0829F8001839F100D1124EE24BC
:10188000EA94F12CC801B7010E945734AB01220F32
:10189000331F65E5649FC001659F900D1124281BCF
:1018A000390B822F880F280FC7018C1B9D0BF89FC7
:1018B000D001F99FB00D11248B2F2C9FB0012D9FCB
:1018C000700D1124672F77275701A61AB70AFA9DC2
:1018D0006001FB9DD00C11247D2D5701A21AB10887
:1018E00095012C9F50012D9FB00C3C9FB00C1124F2
:1018F000AB2CBB24EA18FB08FE9DE001FF9DD00D38
:10190000112443305105C1F00C3F93E0190750F406
:101910004130510509F4A1CF4230510589F07E2FA5
:10192000ED2F9BCF4430510571F046305105B9F38E
:10193000EB2F8D2D7F2F91CFED2D7B2F8F2F8DCFE7
:101940007B2F8D2F8ACF7D2FEB2FF8CF982F809173
:10195000EC06882329F081E09B3108F080E00895AF
:1019600081E09533FACF1F93172F922FE42FF0E0E9
:10197000EE0FFF1FED51FE4F408124EE429F412D9F
:101980001124E72FF0E050E09A01245E3F4F291B1D
:10199000310937FF03C031952195310993E0220FBA
:1019A000331F9A95E1F7E21BF30BF7FF02C0E0E06B
:1019B000F0E07E2F719F712D11241F9108950E94D8
:1019C0002E0D0895FF920F931F93CF93DF93182F3F
:1019D000062FF42EC0E0D0E02F2D402F612FCE0136
:1019E0000E94DF0C2196C633D105B1F7CDB7DEB723
:1019F000E5E00C9494349BE0899F802D1124980F8E
:101A0000973308F096E32091EC06211104C08B3146
:101A100028F48BE108959C3108F09BE10895E9E0FA
:101A2000F7E0248130E1230F08F42FEF2483809125
:101A300008078160809308070895E9E0F7E02481B2
:101A400030E1231B08F420E02483809108078160A3
:101A50008093080708951092EC030895FC0180918B
:101A6000EC06811123C0EB31F1051CF17B97CF010E
:101A7000880F991FDC01AE0FBF1FA65BBC4F1196EC
:101A80003C911197361307C03C91341304C0129651
:101A90003C91321771F031E03093EC03E80FF91FFD
:101AA000E65BFC4F61834083228303C0EB31F10589
:101AB000F4F20895FA01882311F009950895FB01C5
:101AC000FCCFCF93DF93B82FA92F9B0180913004D7
:101AD0009091310489559440AC01460F571F413015
:101AE000524020F020E032E0281B390B40915B0689
:101AF00050915C06EB2FFA2F280F391FC1E0D0E080
:101B00008217930738F050935C0640935B06DF9191
:101B1000CF9108956491DC01A75ABB4F7C91761751
:101B200079F06C93BC01A5E076956795AA95E1F7ED
:101B3000DE0102C0AA0FBB1F6A95E2F74A2B5B2B9E
:101B400001963196DDCFAC0123E0969587952A95D5
:101B5000E1F78E719927FC01E65DFC4F0190F08161
:101B6000E02D4F70552721E030E002C0220F331FD7
:101B70004A95E2F7662341F0E22BF32B865D9C4FFA
:101B8000DC01ED93FC93089520953095E223F32337
:101B9000F5CFFA01309709F0099508958091EB0689
:101BA000882359F0E091B106F091B206309729F000
:101BB0000190F081E02D0995089580E00895A3E05B
:101BC000B0E0E5EEFDE00C947B349C0180912803AD
:101BD0009091290382179307A1F030932903209352
:101BE0002803E091B106F091B206309751F083E0FE
:101BF00089833B832A830084F185E02DCE01019601
:101C000009952396E2E00C949734A3E0B0E0EBE072
:101C1000FEE00C947B349C01809126039091270375
:101C200082179307A1F03093270320932603E091B6
:101C3000B106F091B206309751F084E089833B837E
:101C40002A830084F185E02DCE0101960995239623
:101C5000E2E00C949734909151019923C1F0909156
:101C6000170797FF14C0E82FE695E695E695803FA5
:101C7000F8F4F0E0E652FD4F877021E030E001C05B
:101C8000220F8A95EAF78281822B82830895A4ED40
:101C9000B2E0EFEF90E02D91821751F0EF3F19F491
:101CA000211101C0E92F9F5F9630A9F7EF3F09F49A
:101CB00008950E2E000CFF0BEE52FD4FE6CF9091D3
:101CC00051019923E1F09091170797FF18C0E82F71
:101CD000E695E695E695803FF0F4F0E0E652FD4F9C
:101CE000877021E030E0A90102C0440F551F8A959A
:101CF000E2F7CA0180959281892382830895E4EDF9
:101D0000F2E09191891303C0DF0111971C9252E018
:101D1000EA3DF507B1F70895A4E0B0E0E2E9FEE09E
:101D20000C947B348FB7F8942091220330912303D5
:101D3000409124035091250329833A834B835C838C
:101D40008FBF69817A818B819C812496E2E00C941B
:101D50009734A4E0B0E0EFEAFEE00C947B3480918D
:101D6000EB06882371F00E948C0E69837A838B8343
:101D70009C8369817A818B819C812496E2E00C941A
:101D800097340E948C0E69837A838B839C83809125
:101D90008B0690918C06A0918D06B0918E062981BC
:101DA0003A814B815C81280F391F4A1F5B1F2983B1
:101DB0003A834B835C83DDCFA4E0B0E0E2EEFEE04B
:101DC0000C947934462F572FBC012FB7F89480918B
:101DD000220390912303A0912403B09125032FBFE8
:101DE0008C019D01041B150B260B370BC901B80193
:101DF0002496E4E00C94953487E797E790930108E4
:101E00008093000888E19AE00FB6F894A895809333
:101E100060000FBE90936000FFCF80912103089572
:101E20000895FC019B018091170390911803861778
:101E3000970740F0672B29F48091E8008E77809314
:101E4000E800C90140E0009741F4411106C08091CB
:101E5000E80082FF2FC080E0089520911E04222315
:101E6000A9F12530A9F12091E80023FD2DC0209192
:101E7000E80022FDECCF2091E80020FFE4CF309174
:101E8000F3002091F200009719F02830310558F046
:101E900041E02830310509F040E02091E8002E773C
:101EA0002093E800D0CF41914093F10001972F5F3C
:101EB0003F4FE9CF80911E04882341F0853041F0E7
:101EC0008091E80083FFC3CF81E0089582E0089508
:101ED00083E008958091110387FF13C08091E8008B
:101EE00082FF06C08091E8008B778093E80004C0F1
:101EF00080911E048111F2CF089580911E048823E1
:101F0000D9F38091E80080FFF8CF8091E8008E77C8
:101F1000ECCF2091E4003091E50095E6A901809195
:101F2000EC008170882331F08091E80080FF06C0CA
:101F300080E008952091E80022FD1BC080911E04DE
:101F4000882391F0853091F08091EB0085FD10C0E1
:101F50002091E4003091E5004217530701F39150BE
:101F60009111DCCF84E0089582E0089583E0089524
:101F700081E00895E8EDF0E080818E7F808310920B
:101F8000E2001092DA001092E100A0EEB0E08C9135
:101F900081608C9380818F77808319BCA7EDB0E03E
:101FA0008C918E7F8C9380818F7E80831092100322
:101FB0000895909109079370992371F080930A070F
:101FC00060930B07493708F048E740930C0780916E
:101FD00008078160809308070895E9E0F7E08181B0
:101FE00090E04381628108960E94D90F0895E9E04C
:101FF000F7E08181438162818850990B0E94D90F5B
:102000000895E9E0F7E0628120E1620F08F46FEFE4
:102010008181438190E00E94D90F0895E9E0F7E0C3
:10202000628120E1621B08F460E08181438190E0DD
:102030000E94D90F0895E9E0F7E0438120E1420FC3
:1020400008F44FEF8181628190E00E94D90F0895DA
:10205000E9E0F7E0438120E1421B08F440E08181A0
:10206000628190E00E94D90F0895FC01AC014C5FA1
:102070005F4F8FEF91E32191822728E030E087FFC7
:102080000BC0880F89272150310921153105B9F777
:10209000E417F50781F70895880FF5CF90910907A8
:1020A0009370992391F0883008F087E0880F880FAB
:1020B000909109079370892B8093090710929701DB
:1020C000809108078160809308070895809109072F
:1020D000869586958F5F883008F081E00E944E10CB
:1020E000089590910907969596958FEF890F9130F5
:1020F00009F487E00E944E100895982FE42FE270B3
:102100009093E900891308C0762F242F50E0E11145
:1021100011C091E0980FF4CF7091EC002091ED0088
:102120005091F00021FD06C09F5F973049F78093E2
:10213000E90008953091EB003E7F3093EB00309141
:10214000ED003D7F3093ED003091EB003160309336
:10215000EB007093EC002093ED005093F000209181
:10216000EE0027FDE1CF0895A0E0B0E0EAEBF0E15A
:102170000C947534C8EDD0E088818F7E8883E7EDBC
:10218000F0E080818160808384E082BF81E0809381
:10219000100388818E7F888302EE10E0F8011082A0
:1021A0001092DA0081EEC82ED12CF60110828881BF
:1021B0008F77888388818068888388818F7D8883F2
:1021C00019BC10921E0410920F0310921D0410925D
:1021D0000E0390EEE92EF12CF70180818B7F808336
:1021E00088818160888342E060E080E00E947D1009
:1021F000F60180818E7F8083F801808181608083F9
:10220000808188608083F70180818E7F80838881D0
:1022100080618883CDB7DEB7E8E00C94913480917B
:10222000EC03882341F1539A3BB1377F2BB12860EF
:102230004FB7F8948AE493E0FC010196508168E07E
:102240002BB9000000C057FF3BB9550F000000C07C
:1022500000C000C03BB900C06A9591F753E08C3EC6
:10226000950751F74FBF8FE594E00197F1F700C054
:1022700000001092EC0308950F931F93CF93DF9308
:10228000EB018A0190911E04943079F58093E90066
:102290008FEF9091E80095FD07C095ED9A95F1F7C5
:1022A000000081508111F5CF8091E80085FF1DC0AD
:1022B0000E94890F811114C08091E80085FD06C03D
:1022C0008091E8008E778093E800F2CF8881809338
:1022D000F100015011090115110511F02196ECCF03
:1022E0008091E8008E778093E800DF91CF911F9175
:1022F0000F910895CF93DF93D82FC92F48E050E076
:10230000682F792F81E00E943C1188E0ED2FFC2F8F
:10231000A9E1B3E001900D928A95E1F7DF91CF91A9
:102320000895BC0140E250E082E00E943C11089513
:10233000BC0143E050E082E00E943C110895A0E01F
:10234000B0E0E5EAF1E10C947334F82EE92EB62EF4
:10235000A72E8A0180910C03CC24C394D12C8A30FF
:1023600018F48AE0C82ED12CC1E0D0E06B2D7A2D74
:102370008F2D9E2DF8010995811116C02196CC163E
:10238000DD0694F0CC9FC001CD9F900D900D1124DF
:1023900020E030E045E34A95F1F700002F5F3F4F22
:1023A00028173907B9F7E2CFCDB7DEB7EAE00C94CA
:1023B0008F346091F3068CE090E00E9437350895E9
:1023C00010921B0484E08093F3060E94D9110895B3
:1023D000E9E5F4E080E092E0DF019C011D922150EC
:1023E0003040E1F7F0933104E09330048FEF9FEF3A
:1023F00090935C0680935B060895CF93C82F8091DD
:10240000EB0681110E94E811C0931507CF91089542
:1024100021E030E001C0220F8A95EAF7809115078C
:10242000822B0E94FD11089521E030E0A90102C035
:10243000440F551F8A95E2F7CA01809590911507C0
:1024400089230E94FD110895909116078095892394
:1024500080931607282F277021110DC0891759F076
:102460009091180792FF07C08695869586950E94E1
:1024700014121092160708959091180792FB2227C4
:1024800020F9281779F080FB92F990931807609152
:1024900017077091180784E090E00E94553582E09C
:1024A0000E942412089580915101882359F180914E
:1024B000170787FF27C00E941B098093DB0240E2B9
:1024C00050E061E976E08AED92E00E94F334892BD6
:1024D000C1F080E2EAEDF2E0A1E9B6E001900D92F0
:1024E0008A95E1F7E091B106F091B206309749F094
:1024F00086E08093DA020480F581E02D8AED92E097
:10250000099508950E941B098093D20248E050E08B
:1025100063EB76E082ED92E00E94F334892B89F33D
:1025200088E0E2EDF2E0A3EBB6E001900D928A952F
:10253000E1F7E091B106F091B206309711F3028015
:10254000F381E02D82ED92E0DBCF882321F00E9421
:1025500041090E9453120895882339F09091190778
:10256000892B809319070E9453120895882321F024
:102570000E9447090E9453120895882341F08095D4
:10258000909119078923809319070E945312089587
:10259000CF93C82F8823B1F18CEF8C0F813AA0F52F
:1025A00080915101882301F18091170787FF1CC09A
:1025B000EC2FE695E695E695F0E0E652FD4F828138
:1025C00090E04C2F477021E030E002C0220F331F13
:1025D0004A95E2F782239323892B79F08C2F0E946E
:1025E0005F0E0E94531209C0E4EDF2E08191C8171A
:1025F000A9F322E0EA3DF207C9F78C2F0E942B0EC7
:102600000E945312CF91089580E28C0F883048F4D5
:10261000C77081E001C0880FCA95EAF70E9441099E
:10262000EFCF8BE58C0F833038F42C2F2452330BF3
:10263000C9010E94DF0DE6CFC85ACB3118F7EC2F45
:10264000F0E0EE0FFF1FE756FD4F808191810E9461
:10265000050ED8CFCF93DF93EC01805E91090897E8
:1026600020F06CEA72E1209711F465EA72E1CE0184
:102670000E9473088C2F0E94C812DF91CF91089599
:10268000CF93DF93EC01FB018A81823039F48281A0
:1026900093810E942A138D8182608D83DF91CF9177
:1026A0000895FB01808191810E942A130895882357
:1026B00039F19CEF980F913A28F40E945F0E0E9426
:1026C0005312089590E2980F983050F4877091E07B
:1026D00001C0990F8A95EAF7892F0E944709EFCF29
:1026E0009BE5980F933028F480E090E00E94DF0D86
:1026F0000895885A8B3120F480E090E00E94050E06
:102700000895CF93DF93EC010E945713CE01805EB2
:102710009109089720F06DEB72E1209711F466EBB8
:1027200072E1CE010E947308DF91CF9108950F935B
:102730001F93CF93DF938C01EB010E942A13209704
:1027400041F4C8010E948113DF91CF911F910F9135
:1027500008958FE99FE00197F1F700C000002197ED
:10276000EECFFB01DC0112968C91813029F480813F
:1027700091810E94811308958230E9F782819381CB
:10278000F8CF0F931F93CF93C82F00E010E0893349
:1027900011F400E510E08C2F0E94C81201151105FC
:1027A00039F48C2F0E945713CF911F910F910895E8
:1027B0008FE99FE00197F1F700C000000150110977
:1027C000EDCF0E94CE0D8093F2069091F3069130EA
:1027D00029F481FF03C089E30E94C113809111078E
:1027E0008093F10610921107109219078091F30659
:1027F0008230C9F030F481110FC082EE0E94C812FD
:1028000004C0843021F1853039F18FE39CE90197D0
:10281000F1F700C00000089560E070E088E193E007
:102820000E949713F2CF8091F20680FD03C083E5EA
:102830000E94C11382EE0E94C8128FE39CE90197A7
:10284000F1F700C0000087E50E94C113DECF86EEDD
:102850000E94C11388E1F8CF60E070E08BE191E065
:102860000E94971360E070E085E290E00E94971369
:1028700060E070E088E290E0D3CFFF920F931F9367
:10288000CF93DF93E82FF0E0E254F74FF490282F36
:1028900026952695269530E0F901E255F74F94915B
:1028A0008770F901E256F74F049110E0082E02C03C
:1028B000159507950A94E2F701701127F901E2577F
:1028C000F74FC491D0E0082E02C0D595C7950A9461
:1028D000E2F7C170DD27E92FF0E002C0F595E7953A
:1028E0008A95E2F7E0FD10C001151105C1F48F2DA6
:1028F0000E94C113CD2B19F08CE20E94C113CDB7F9
:10290000DEB7E5E00C94943481EE0E94C812011504
:10291000110579F48F2D0E94C11381EE07C086EE58
:102920000E94C8128F2D0E94C11386EE0E94571379
:10293000E1CF86EE0E94C8128F2D0E94C11386EE51
:102940000E945713EACFA0E0B0E0E9EAF4E10C946A
:1029500074346B017C012091F306D701C6013CE180
:10296000B695A795979587953A95D1F7B82EC7E074
:10297000D0E00CE110E02430D1F539E03B1558F4FB
:1029800080E30E943D148091F306823009F052C02A
:102990008AEF8B0D11C0BB20A1F180E38B0D0E944B
:1029A0003D140CC02230C9F789E08B0D90E06AE03D
:1029B00070E00E94AE34875A0E94C11321970450E0
:1029C0001109CF3FDC07C1F1D701C601002E04C0B9
:1029D000B695A795979587950A94D2F7382F3F70AB
:1029E000B32E8091F306311104C08230DCCFBB20BE
:1029F00041F08091F3068230C1F489E08B1540F2FA
:102A0000D3CFC330D10571F2219704501109D701FA
:102A1000C601002E04C0B695A795979587950A9490
:102A2000D2F7382F3F70B32EA6CF86EF8B0D8630AE
:102A300008F0B3CF87E5B2CFCDB7DEB7E9E00C94AD
:102A4000903410921107809151018823C1F0809138
:102A5000170787FF14C0ECEDF2E08EE1DF011D9255
:102A60008A95E9F780E090E00E94DF0D80E090E039
:102A70000E94050E109219070E9453120895E4ED6A
:102A8000F2E086E0EBCF0E9421152FEF84E39CE07B
:102A9000215080409040E1F700C0000088E19AE0BA
:102AA0000FB6F894A895809360000FBE90936000D5
:102AB000FFCFAAE2B0E0EFE5F5E10C947A3481E1D2
:102AC00093E0FC0101962091F100208323E08931FD
:102AD0009207B9F780911203893009F456C0C8F4FF
:102AE000823009F4B2C0833009F481C0813071F1C1
:102AF0008091E80083FFE6C080911103909112035A
:102B00009A3008F0DFC0E92FF0E0E35AFA4C0C9459
:102B1000E4348A3009F488C08B3051F78091110376
:102B2000813231F78091150390911603892B01F7BB
:102B30008091E800877F8093E8000E946A0F80916F
:102B40001303809351010E942115D2CF809111036C
:102B5000813A71F68091E800877F8093E800809148
:102B6000150390911603892B61F060E080E090E0FE
:102B700070E00E94110F8091E8008B778093E8004D
:102B8000B7CF68E089E193E0F3CF80911103813200
:102B900009F0AECF8091150390911603029708F0CB
:102BA000A7CF8091E800877F8093E8008091E800BC
:102BB00082FF18C09091F3008091F200029731F4E7
:102BC0008091F100813011F0863021F48091F10084
:102BD000809321038091E8008B778093E8000E9426
:102BE0006A0F86CF80911E048111E0CF81CF809142
:102BF0001103813A09F07CCF80911503909116035F
:102C0000892B09F075CF8091E800877F8093E800D9
:102C10008091E80080FFFCCF809151018093F1000A
:102C20008091E8008E77D9CF80911103813209F02D
:102C30005FCF8091E800877F8093E8000E946A0F51
:102C40008091140380930D0353CF80911103813A37
:102C500009F04ECF8091E800877F8093E800809153
:102C6000E80080FFFCCF80910D03D8CF803889F039
:102C7000823841F5809115038F70873018F5809365
:102C8000E9008091EB0085FB882780F91092E9002C
:102C900006C080910E0390911D0491118260909165
:102CA000E800977F9093E8008093F1001092F10084
:102CB0008091E8008E7723C0811116C080911303A4
:102CC000813011F18091E80083FF0AC08091E80013
:102CD000877F8093E8008091EB0080628093EB0017
:102CE000AA96E3E00C949634823061F78091130346
:102CF000882389F01092E9008091E800877F809313
:102D0000E8000E946A0FDECF81E0933009F080E096
:102D100080931D04EFCF809115038F702FEF280F44
:102D2000263080F68093E9002091EB0020FFE2CF6F
:102D3000933031F48091EB0080628093EB00DACF26
:102D40009091EB0090619093EB0021E030E0A901BD
:102D500002C0440F551F8A95E2F74093EA00109293
:102D6000EA008091EB008860E8CF8111ABCF109131
:102D700013031F778091E3008078812B8093E30019
:102D80008091E800877F8093E8000E946A0F80911D
:102D9000E80080FFFCCF8091E30080688093E3002F
:102DA00083E0111101C082E080931E048BCF805814
:102DB000823008F087CF40911303509114034C3DAB
:102DC00083E0580799F583E08A838AE289834FB7C5
:102DD000F894DE01139620E03EE051E2E32FF0E0AC
:102DE00050935700849120FF03C082958F703F5FFE
:102DF0008F708A30C8F0895C90E08D939D932F5F2F
:102E0000243161F74FBF8091E800877F8093E8000D
:102E10006AE270E0CE0101960E94110F8091E800F5
:102E20008B778093E8004ECF805DE6CF209115032D
:102E300030911603852F99278330910509F160F4AD
:102E40008130910509F472C0029709F03BCF8BE302
:102E500090E0EDE1F8E029C08132910509F45AC013
:102E6000829709F02FCF2115310509F469C021306F
:102E7000310509F027CF8DE690E0ECE6F7E015C0CC
:102E8000CA0199274130B1F18230910509F43AC065
:102E9000892B09F017CFEAE8F8E0E4918E2F90E053
:102EA000EAE8F8E0009709F40DCF2091E800277FC9
:102EB0002093E8002091170330911803821793079D
:102EC00008F49C0140E02115310509F03EC0411194
:102ED0003CC08091E80082FDA1CF80911E04882330
:102EE00009F49CCF853009F499CF8091E80083FFE5
:102EF000F0CF94CFE8E7F8E0E4918E2F90E0E8E798
:102F0000F8E0D0CFEAE6F8E0E4918E2F90E0EAE630
:102F1000F8E0C8CF2115310571F02130310509F0F5
:102F2000D1CE89E090E0E8E4F8E0BFCF82E190E024
:102F3000E8E5F8E0BACF89E090E0EFE2F8E0B5CF5D
:102F400084E490E0E9EDF7E0B0CF80911E0488239F
:102F500009F464CF853009F461CF8091E80083FDE6
:102F60005DCF8091E80082FDB4CF8091E80080FFC2
:102F7000AACF9091F3008091F2002115310519F04C
:102F80008830910550F041E0089709F040E08091C9
:102F9000E8008E778093E80096CF44914093F1004B
:102FA0003196215031090196E8CF803809F08ACE58
:102FB0008091E800877F8093E80080910F038093E1
:102FC000F10076CE81117ECE10911303123008F0FD
:102FD00079CE8091E800877F8093E80010930F03FB
:102FE0000E946A0F112381F084E080931E0442E066
:102FF00061EC81E00E947D1042E261EC82E00E947F
:103000007D1080911E045ECE8091E30087FDECCFA1
:1030100081E0EBCF80919601877F8093960190911C
:1030200019079D7F9093190784FF06C08F7E8093B8
:10303000960182E00E9441098091960185FF06C0B9
:103040008F7D8093960180E20E9441090E94531275
:103050000895EF92FF920F931F93CF93DF93EC01AC
:103060007B018091960182FF64C00091FD06109162
:10307000FE060C171D0719F0209709F05AC0809121
:1030800096018B7F80939601C1E081FD10C08091F5
:10309000FB069091FC069701281B390BC1E080913B
:1030A0009401909195012817390708F4C0E0C17088
:1030B00080919601C0FB81F9809396016C2FC80125
:1030C0000E94A30D8091110781FF08C08091960195
:1030D00080618093960182E00E94470980911107E8
:1030E00085FF08C08091960180628093960180E2FE
:1030F0000E944709CC2329F08091190782608093B0
:103100001907C80190528115904308F41127C8018E
:103110000E942A138091FD069091FE069C01305278
:103120002115304308F499270E9481130E940A1840
:1031300010C0CE01905281159043A0F4CE01992782
:103140000E9481138091FD069091FE06C817D90751
:1031500069F3F092FC06E092FB06CDB7DEB7E6E03D
:103160000C949334CE01ECCFCF93DF93EC014A85DE
:103170005B856E857F850E94C90D9B8190958091AE
:1031800019078923809319078C810E9447090E949F
:10319000531286E0FE0111928A95E9F7DF91CF91F3
:1031A0000895CF93DF93EC018D8181FD14C082607F
:1031B0008D83809119079B81892B809319078C81BE
:1031C0000E9441090E945312488559856E857F856A
:1031D000CE010E94C90D1092EE061092ED068D816F
:1031E00080FD03C0CE010E94B418DF91CF910895F5
:1031F000A8E0B0E0EEEFF8E10C947B3466EE7EEFF1
:1032000080E090E00E94553560E082E090E00E940E
:10321000373581E08093140761E083E090E00E94FD
:10322000373560E074E184E090E00E94553560E05D
:1032300086E090E00E9437356FEF87E090E00E94D3
:10324000373540E050E0BA0188E090E00E9449350F
:1032500060E084E290E00E94373560E087E190E032
:103260000E94373560E08CE090E00E94373560E0E6
:103270008DE090E00E94373519821A821B821C82F1
:103280001D821E821F82188648E050E068E170E0CF
:10329000CE0101960E94273540E050E0BA0180E25D
:1032A00090E00E94493540E050E0BA018FE090E0A4
:1032B0000E94493540E050E0BA0183E190E00E946D
:1032C00049352896E2E00C949734E9E0F7E085E090
:1032D00080838091980190919901A0919A018183B6
:1032E0009283A3838FE784838FEF858348E050E048
:1032F00068E170E0CF010E94273510920807089519
:10330000A8E0B0E0E6E8F9E10C946C340E94A90E64
:103310006093ED037093EE038093EF039093F003BB
:1033200020910907322F33703983332321F0A22FE4
:10333000A695A695A98330919701323009F4F1C280
:1033400080F4311115C01092140160930D04709334
:103350000E0480930F049093100481E080939701F2
:1033600003C0333009F4E6C22896E1E10C948834B6
:1033700080911301B981B81324C02370822F90E08B
:103380004091120150E021E08417950709F420E0F4
:10339000822F81708093160180910E079091150104
:1033A000981739F08093150140E060E080E00E94BA
:1033B000E20CE981E83038F4F0E0E959FA4C0C9479
:1033C000E43481E0E6CF809114018F5F8093140193
:1033D00082E0C4CF80911601811107C08091140151
:1033E0008F5F8093140183E0B9CF40E060E080E01C
:1033F0000E94E20C809114018F5F8093140182E09F
:1034000080939701809116018111AECFECCF80910E
:1034100014010E94FB0C082F998360910A07709198
:103420000B0780910C070E941E0C6D83F72EE82E6F
:1034300010E0F9810F1758F08F2F0E94A60C909181
:1034400014019F5F9093140181118ECFC1CFF801B9
:10345000E15BFD4F8081909115018923882331F034
:103460002E2D4D816F2DC8010E94DF0C0F5F1F4F65
:10347000E0CF809114010E94FB0C8D83E92E2091F6
:103480000A07298300910B0710910C07622F702FF8
:10349000812F0E941E0CD62EC72EB82E80910D07AC
:1034A0006981680F702F812F0E941E0C162F072F25
:1034B000F82E9D81892F90E09A838983B981BE156A
:1034C00010F08E2DBACFE981FA81E15BFD4F80814A
:1034D000309115013823332361F02F2D412F602FB8
:1034E00080FD03C02B2D4D2D6C2D89819A810E946A
:1034F000DF0CA981BA811196BA83A983DFCF8091AD
:1035000014010E94FB0C192FF0900B07E0900C07A0
:1035100020910D0700E4029F012D1124E82FF0E017
:10352000FA83E9833981311710F0812F86CFE98141
:10353000FA81E15BFD4F80819091150189238823F9
:10354000C9F0E981FA81EE0FFF1FED54FE4F81A90A
:1035500082958F7060910A07809F600D11247F2DE6
:103560008E2D0E941E0C462F672F282F89819A814D
:103570000E94DF0C29813A812F5F3F4F3A832983D4
:10358000D1CF809114010E94FB0CF92EE0900B0723
:10359000D0900C0720910D0700E4029F012D11240B
:1035A000A82FB0E0BA83A98310E0F981FF1510F0CD
:1035B0008F2D43CFE981FA81E15BFD4F80819091AE
:1035C000150189238823F9F0E981FA81EE0FFF1FA5
:1035D000ED54FE4F20A9209FC001219F900D112482
:1035E00025E0959587952A95E1F760910A07680F80
:1035F0007E2D8D2D0E941E0C462F672F282F89812E
:103600009A810E94DF0CE981FA813196FA83E9837D
:10361000CCCF809114010E94FB0C092F30910D0733
:103620003695369521E0320F08F43FEF60910D0496
:1036300070910E0440E050E0639F412D739F400D58
:10364000511D1124142F282F30E03A8329839981AA
:10365000901710F0802FF1CEE981FA81E15BFD4FE8
:103660008081909115018923882399F060910A0740
:1036700070910B0780910C07212F49810E94B30C98
:103680000E941E0C462F672F282F89819A810E9445
:10369000DF0C89819A8101969A838983D8CF8091A2
:1036A00014010E94FB0CC82E998370910B07809126
:1036B0000C0760910A0740910D0450910E049091FF
:1036C0000D0796959695969520E030E0499F212D1F
:1036D000599F200D311D1124322F36FD2095422F88
:1036E0004F7036FD4F5FE22FE695E695E695E67062
:1036F000F0E0E555FE4F9181949F902D412D1124CE
:1037000092959F704295407F942B2081290F37FD21
:10371000219527FD2195220F3CE0239F212D112487
:10372000620F0E941E0C162F072FF82ED12CB98184
:10373000CB1610F08B2F81CEF601E15BFD4F80811F
:10374000909115018923882331F02F2D412F602F6F
:10375000C6010E94DF0CAFEFCA1ADA0AE8CF8091E7
:103760001601882329F040E060E080E00E94E20C2E
:10377000809114010E94FB0C492E40910D04509140
:103780000E0460910F0470911004809109049091CF
:103790000A04A0910B04B0910C0484179507A607A6
:1037A000B70708F0A4C060910A0770910B078091D9
:1037B0000C070E941E0C762E672E582E01EF13E088
:1037C000E3EBF1E0FA83E98385E0A82E88E0B82EE8
:1037D000C980DA8046017801312C02C03324339449
:1037E000D7012D917D01F40181914F0190E02223B9
:1037F00009F47FC0252D472D662D0E94DF0CD601D0
:1038000015968C91252D472D662D90E00E94DF0C9A
:10381000D7018C91F70131978083B1E0CB1AD108A1
:103820003320E1F2E981FA81828190E0D801129699
:103830002C91222309F468C0252D472D662D0E9466
:10384000DF0CE981FA818381252D472D662D90E0DB
:103850000E94DF0C80911001909111018A9DF0016E
:103860008B9DF00D9A9DF00D1124E75EF94CF093BD
:103870001101E0931001EF0FE37081E0E11180E0AE
:10388000F80182830D5F1F4F29813A812A5F3F4FE4
:103890003A832983235E314009F09ACF30E1809149
:1038A0000D07282F230F08F42FEF822F90E060E000
:1038B00070E0839F612D939F600D711D112488EB33
:1038C0009BE00E94573480910D0490910E04A091CA
:1038D0000F04B0911004860F971FA11DB11D809396
:1038E000090490930A04A0930B04B0930C04842D54
:1038F000A4CD20E040E060E00E94DF0CF60185816D
:1039000020E040E060E081CF20E040E060E00E9405
:10391000DF0CA981BA8113968C9120E040E060E031
:1039200096CF9981909313012370209312010E94E6
:103930000F1159CD80910807882351F048E050E0DD
:1039400068E170E089E097E00E942735109208074F
:1039500080910D0490910E04A0910F04B091100479
:1039600089839A83AB83BC838091EB06882391F093
:1039700069817A818B819C810E94DC0E462F572FB2
:10398000BC01403151056105710508F4EDCC109280
:103990009701EACC0E94A90EAB01BC0189819A81F2
:1039A000AB81BC81481B590B6A0B7B0BEACFA8E0AB
:1039B000B0E0EDEDFCE10C947A34809165069091D5
:1039C0006606A0916706B0916806BC01CD010E9411
:1039D000DC0E11E0643671058105910578F10E94D5
:1039E000A90EDC01CB010296A11DB11D89839A832A
:1039F000AB83BC8380914201909143018B58994FD6
:103A000020914101422F50E0253010F044E050E079
:103A1000BE016F5F7F4F0E94003583E090E00E94FF
:103A2000E233182F882351F00E948C0E60936506B4
:103A3000709366068093670690936806812F289698
:103A4000E3E00C949634A6E0B0E0E9E2FDE10C94EA
:103A500074348D837B01B42E5E83B9016801A801A3
:103A60008B2D9E810E94F3348C01D7018D919D9105
:103A70000D90BC91A02DBC01CD010E94DC0E69838C
:103A80007A838B839C83643671058105910518F4D4
:103A90000115110539F1BD810B2F0B2E000C110BF7
:103AA00088E0B802F0011124E75DFE4F8181928128
:103AB0008B58994F2081422F50E0C416D50608F448
:103AC000A6016B2D7E810E940035C8010E94E23361
:103AD000882349F00E948C0ED7016D937D938D93BE
:103AE0009C93139781E02696E9E00C9490340F9311
:103AF0001F93AC0104E010E02AE736E069E676E0C7
:103B000082E00E94231D1F910F910895A9E0B0E06B
:103B1000ECE8FDE10C94793488E0E9E0F7E0DE01BF
:103B2000119601900D928A95E1F7198609E010E04F
:103B300022E836E0AE014F5F5F4F61E676E084E059
:103B40000E94231D2996E4E00C949534EF92FF9295
:103B50001F93CF93DF93CDB7DEB729970FB6F894B5
:103B6000DEBF0FBECDBF7B0180E090E00E94E2335C
:103B7000182F81111BC010E080916D0690916E0688
:103B8000A0916F06B0917006F70180839183A283A4
:103B9000B383812F29960FB6F894DEBF0FBECDBF39
:103BA000DF91CF911F91FF90EF90089580912C01AC
:103BB000482F50E0882311F041E050E060912D0142
:103BC00070912E016B58794FCE0105960E940035F9
:103BD0008091710690917206A0917306B09174065F
:103BE000BC01CD010E94DC0E6E837F83888799879C
:103BF000643671058105910538F486E796E00E94E8
:103C000035109D818917B9F181E090E00E94E2337F
:103C1000882309F4B0CF80913401482F50E08530DB
:103C200010F044E050E060913501709136016B581E
:103C3000794FCE0101960E94003586E796E00E94FA
:103C400035109D81891397CF0E948C0E6093710669
:103C500070937206809373069093740689819A819B
:103C6000AB81BC8180936D0690936E06A0936F0626
:103C7000B093700681CF8091760690917706A091DF
:103C80007806B091790689839A83AB83BC83E6CFAB
:103C9000A0E0B0E0EEE4FEE10C9475347C016B0131
:103CA00064E670E088E70E94A331EC0197FD12C042
:103CB00000E010E0F701E00FF11F849164E670E08E
:103CC0000E941232EC010F5F1F4FC016D10611F097
:103CD00097FFF0CF0E94943281E0CD2B09F080E075
:103CE000CDB7DEB7E8E00C949134CF93DF93682F23
:103CF00081E06A3019F06D3031F480E00E94F51EE9
:103D0000DF91CF910895809130049091310426E0A5
:103D1000FC01A6E0B3E001900D922A95E1F7603E28
:103D200008F458C026E0FC0111922A95E9F7C091E9
:103D30003004D091310446E050E0BE0186E093E0CB
:103D40000E94F3349E0129553440892B41F1C90169
:103D500045E0969587954A95E1F741E050E0BA0134
:103D600002C0660F771F8A95E2F7CB0160915B0670
:103D700070915C06862B972BB9016B5F7F4FE5E056
:103D800076956795EA95E1F702C0440F551F6A954D
:103D9000E2F7842B952B90935C0680935B062A5F59
:103DA0003F4F40913204642F70E0C9010E945734A4
:103DB000481B463010F4240F311D211572E03707DF
:103DC00010F020E030E0275A3B4F3093310420932D
:103DD000300496CFF6E06F9FB0011124645D7D4FF3
:103DE00046E050E00E94EA34A2CFCF93382FE09112
:103DF0003004F0913104E955F44020913204622FEF
:103E000070E0CF010E945734281B822F332361F0CA
:103E100066E00E94A234C82FC15010F4CF910895DB
:103E200080E20E94751EF8CF9F01280F311D2115D9
:103E3000324018F080E0E0E0F0E08E0F9F2F911DFF
:103E4000875A9B4F9093310480933004E7CFCF93F0
:103E5000DF93EC01FE018491811103C0DF91CF91CA
:103E600008950E94751E2196F5CF0E94271F81E0BC
:103E70000E94F51E08951F921FB61F9211248F9362
:103E80009F93AF93BF9380911C04811113C08091C5
:103E9000220390912303A0912403B091250341961E
:103EA000A11DB11D8093220390932303A0932403AB
:103EB000B0932503BF91AF919F918F911F901FBE2B
:103EC0001F9018952FB7F8948091220390912303A7
:103ED000A0912403B09125032FBF08959C014FB7F3
:103EE000F8948091220390912303A0912403B09130
:103EF00025034FBF821B930B08950F931F93CF93FE
:103F0000DF93C62FD42F122F8823A9F060930607C2
:103F10000E94621F9093050380930403C77081E0A1
:103F200001C0880FCA95EAF70E94A512DF91CF91D0
:103F30001F910F91089580910607681332C08091F8
:103F40000403909105030E946E1F843B910548F580
:103F5000CD130CC0812F0E94C113D77081E001C026
:103F6000880FDA95EAF70E94B612E0CFC77001E039
:103F7000802F01C0880FCA95EAF70E94B61280E22E
:103F80008D0F883050F48D2F877001C0000F8A95F7
:103F9000EAF7802F0E94A512DDCF812F0E94C11366
:103FA000C5CFC77081E001C0880FCA95EAF7DBCFA3
:103FB000AAE0B0E0EEEDFFE10C946D347C01DC0191
:103FC00014968C91882309F41CC461E0C7010E94F7
:103FD000AE0B8C01F7018581882319F18091ED06E4
:103FE0009091EE060097E9F008171907D1F099278C
:103FF00024E0880F991F2A95E1F7FC01E95AFE4F4A
:104000002081246020838E5A9E4FDC010D931C93E7
:104010000E94D1181092190761E0C7010E94AE0BEF
:104020008C01F7018581980137552F3F310511F03B
:1040300008F0FDC0F801FF27B4E0EE0FFF1FBA95AE
:10404000E1F79F012E5A3E4F3A832983E95AFE4FEA
:10405000908180FB90F99083882309F4A4C00E948A
:10406000621F9093F0068093EF06A981BA811296A1
:104070008C9112978F5F12968C93129780911907EB
:1040800090911107892B13968C93139780911207A7
:1040900014968C93149716964D915C9117971E96D3
:1040A0006D917C911F97CD010E94C90DE981FA8124
:1040B000858181FD75C0902F812F9093ED068093AF
:1040C000EE06D70115968C91882309F4C7C00E948B
:1040D000621F982E892EF7018581882309F446C333
:1040E0008091960182FDD4C00331FCE71F0709F4DB
:1040F0000BC108F0E6C101313CE7130709F421C206
:1041000002314CE7140709F426C280919401909182
:104110009501059700315CE7150709F417C2D7012F
:1041200015968C91980130522115304308F40FC335
:10413000F70185819091960190FFF3C10933110534
:1041400008F063C30D32110508F02CC308321105C5
:1041500008F024C30430110508F024C3D7011596D4
:104160009C9181117EC3992309F4D8C0109206074F
:10417000C8019057839708F0E3C484E090E00E9460
:1041800021359093180780931707F801E150F04705
:10419000E232F10508F017C4E159FA4C0C94E4340A
:1041A00090E080E08ACFE981FA8144855585668573
:1041B0007785CF010E94C90DA981BA8115968C918E
:1041C000159781FF27C0CD010E94B4182091ED06FC
:1041D0003091EE06F701858102171307F1F4109272
:1041E000EE061092ED068823C9F10E94621F982EF8
:1041F000892ED70115968C91811172CF053E11053C
:1042000009F044C1809196018F7D80939601F7015A
:104210008581B6C2D70115968C91882309F42EC1E9
:104220000E94621F982E892EF7018581E5CF882391
:1042300009F453C0909111079272F801E053FC47C2
:10424000E830F10508F049C0EF56FA4C0C94E4341C
:104250008FEF91110EC081E00E94E0110E94621F59
:10426000982E892ED70115968C910EC19923B9F0FD
:1042700081E00E94E0110E94621F982E892EF701B2
:104280008581882309F40BC18091960182FF19C1B1
:10429000692D782D80E090E00E94291825CF8FEFBE
:1042A000DBCF1092F3060E94D911E5CF81E0809315
:1042B000F3060E94D9110E94621F982E892ED70101
:1042C00015968C91DECF82E08093F306ECCF83E0ED
:1042D000EECF84E0F9CF85E0EACF17FFF8CE811169
:1042E0002BC00E94621F982E892ED70115968C91A3
:1042F000882309F4D4C08091960182FDC9CF03318F
:10430000BCE71B0709F0DDC08091960181608093B6
:104310009601D70115968C918111A8C28091110741
:104320008272F801E052F847E531F10508F02AC23F
:10433000E756FA4C0C94E4340115E0EC1E0708F43F
:1043400070C08091190790911107892B90911207E5
:10435000892B8272F1E0F983811101C019820E94D8
:10436000CE0D869581702981F801281729F0EE0F6E
:10437000EF2FEE1FFF0BF195EF77FF2734E0E39F60
:10438000F0011124E856F04F85909590A590B490D7
:104390008114910441E1A406B10408F0A2CF811474
:1043A0009104E1E0AE06B104F0F18091F3068230B1
:1043B00009F497CF0E94E1138091F306811135C073
:1043C000E1E0AE1AB108D501C401FAE0B695A795AF
:1043D00097958795FA95D1F79C01AD0138524F4FCB
:1043E0005F4FCA01B9010E94A31433E09322AA24AB
:1043F000BB24B501A40154526F4F7F4F49835A83A8
:104400006B837C83CB01BA010E94A3148091F306D5
:10441000823011F168F4811114C082EE0E945713AA
:104420000BC0E02FABCF0E94E113C501B401ECCF6C
:104430008430D9F08530D9F08091F106809311074E
:1044400050CF8CE20E94C1138091F20681FFF4CF1D
:1044500089E30E94C113F0CF82EE0E94571380912E
:10446000F20680FDE9CF83E5F4CF88E2F2CF60E089
:1044700070E088E290E00E949713DECF0E94621FF6
:10448000982E892EF701858181112ACED7011596A4
:104490008C91980130522115304308F40EC2F70177
:1044A00085819091960190FD49CEF7018581F801B3
:1044B000E851FC47E730F105A0F5E255FA4C0C94C1
:1044C000E43404316CE71607E9F090919601892FE6
:1044D0008E7F90FF816005317CE71707B1F0D7012F
:1044E00015968C9190FFE1CF0933110508F42ACE7F
:1044F000D70115968C918823C1F21092FE06109276
:10450000FD06D3CF809196018E7F809396010E9405
:104510000A188091960180FF51C2F70185818111AF
:10452000AAC1F7018581811110920607D70115965E
:104530008C9181111DCE0631BCE71B0709F0EECE30
:1045400004C38091940190919501059690939501F3
:1045500080939401DECF80919401909195012091F8
:104560009201309193018217930711F52091FA0679
:104570002032F1F484EF96E06C010196D6012C9183
:104580002032D1F3F6018081882309F4D1CD813026
:1045900009F0DAC091818281913009F097C0F2E090
:1045A000CF0ED11C0E94C113FFEFCF1ADF0AEACF52
:1045B000909393018093920120E22093FA069C014C
:1045C00040E050E029833A834B835C831092F906E4
:1045D00079EFA72E76E0B72EEAE04E2E512C612C13
:1045E000712CCA01B901A30192010E94C234FA01DF
:1045F0006D837E838F839887862F805D4D815E815A
:104600006F817885C12CD12C452B462B472B69F522
:1046100048EFA42E46E0B42E8093F80629833A830F
:10462000EB83FC8369817A818B819C81A301920158
:104630000E94C2346D837E838F839887862F805D2E
:104640002D813E814F815885CC24C394D12C232BBE
:10465000242B252B51F480E249815A816B817C8186
:10466000452B462B472B09F080E39AE0492E512C2D
:10467000612C712CD5018E935D0169817A818B81CA
:104680009C81A30192010E94C23429833A834B8307
:104690005C83BFEFCB1ADB0AE5E0CE16D10409F448
:1046A00069CFCA01B901A30192010E94C2346D838E
:1046B0007E838F839887862F805D2D813E814F81F9
:1046C0005885232B242B252BA9F6C5CF923031F406
:1046D00022E0C20ED11C0E94C81266CF933031F482
:1046E00032E0C30ED11C0E9457135ECF943021F0EC
:1046F0004FEFC41AD40A58CF52E0C50ED11C20E0A7
:1047000030E06AE0A6014F5F5F4F8053990B8A301B
:10471000910568F02115310509F446CFEFE9FFE076
:104720003197F1F700C0000021503109F3CF629FAB
:10473000F001639FF00D11249C012E0F3F1FD60145
:1047400011968C916A01DECF0E943D142DCF1092FC
:10475000FE061092FD06882309F4C6C010920607D3
:10476000D70115968C9181110DC0D8CD013E110550
:1047700009F044CD809196018F7E809396018581CA
:104780008111EECFF7018581882309F4ADC00A3588
:10479000FCE71F0709F095C081E04DC20B321105FF
:1047A00009F0BBCE882309F456C080911207D0903F
:1047B0001107D82A9D2D9D7F992359F11092FE064D
:1047C0001092FD0660E0C8010E94A30DC8010E947E
:1047D0002A13809112078D7F0E944F0982E00E9468
:1047E0002412809116078770882359F0F70185817C
:1047F000882339F08091180782FF03C082E00E946D
:1048000024122A96E0E10C9489340436110551F201
:104810006FCE97E0F701AFEFB6E001900D929A9559
:10482000E1F710920207109201078D7F0E944F0955
:104830001093FE060093FD069092FB068092FC0604
:104840008D2D8270846090919601997FD82ED92AFF
:10485000D0929601C3CF692D782DC8010E942918E6
:10486000C0CF1092FE061092FD067DCC1092FE067F
:104870001092FD067BCC1092FE061092FD0651CEE2
:1048800026E241EE61EE0E947D1FABCF27E245EEAE
:1048900065EEF9CF26E241EE60EEF5CF27E245EE78
:1048A00064EEF1CF26E241EE62EEEDCF27E245EE77
:1048B00066EEE9CF28E241E0EBCF8823A9F0109221
:1048C00006070B352CE7120708F0A6C101303CE7BC
:1048D000130709F4C6C103304CE7140709F4BBC140
:1048E00001151C4709F4AAC1D70115968C9115979B
:1048F0000D911C91882309F4B8C1C8010E94830B53
:104900008983682FC8010E94B408B80189810E9478
:1049100059090E946A0A8D839983F7010581D6801F
:10492000D2948FE0D822809116078770882309F1EE
:10493000C02E0023F9F0892F807F803469F08D81AB
:10494000805E8830B0F0892F807E803229F4FD812E
:10495000F23078F0DD2069F08091180782FF09C0FD
:1049600082E00E942412809116078770CC24C394A1
:104970008111C12C898182958F70883009F469C2B8
:1049800008F098C1843008F075C119811F70823019
:1049900008F4A2C16981607F603211F01295107F26
:1049A0007D81772309F4CFC1713009F416C2002349
:1049B00009F420C2DD2009F4E2C1A3C1D701159694
:1049C0008C918823D1CB8091170781608093170742
:1049D000609117077091180784E090E00E945535A8
:1049E0000E942115FECE80911807886080931807D9
:1049F000EFCF809117078260E9CF8091170784601D
:104A0000E5CF809117078860E1CF8091180781601A
:104A1000EDCF809118078260E9CF80911707806100
:104A2000D5CF809117078062D1CF8091170780641E
:104A3000CDCF0E942115809117078068C7CF809144
:104A400017078C60C3CF809118078360CFCF809108
:104A500017078E7FBBCF80911807877FC7CF8091C4
:104A600017078D7FB3CF809117078B7FAFCF8091D2
:104A70001707877FABCF809118078E7FB7CF8091C4
:104A800018078D7FB3CF809117078F7E9FCF8091BE
:104A900017078F7D9BCF809117078F7B97CF0E9441
:104AA0002115809117078F7791CF80911707837F0A
:104AB0008DCF809118078C7F99CF8091170782FB4B
:104AC000992790F921E0922790FB82F990FB83F9D6
:104AD0007DCF80911807982F909591708E7F892BAC
:104AE00090FB81F983CF90911707892F8F7B96FFD9
:104AF00080646CCF0E94211590911707892F97FB36
:104B000087F9805863CF61E08EE090E00E943735EE
:104B10005FCF60E0F9CF90911707892F8F7E94FFC8
:104B2000806154CF90911707892F8E7F90FF81600D
:104B30004DCF90911807892F877F93FF886056CFBC
:104B40000631BCE71B0709F00BCE80911107F70176
:104B50009581992389F08A7A91E0811101C090E0D2
:104B600090930707882331F085E30E942B0E0E9463
:104B7000531237CE89E2F9CF80910707882321F0BD
:104B800085E30E945F0EF3CF89E2FBCF8091090796
:104B900091E0892780930907109297018091080777
:104BA0008160809308071DCE41E750E166E670E121
:104BB0000E945A0D16CE46E650E161E770E1F8CF4B
:104BC00047EF5FE06DEE7FE0F3CF4DEE5FE067EF24
:104BD0007FE0EECF4EE050E161E070E1E9CF41E0EF
:104BE00050E16EE070E1E4CF48E250E16BE170E14A
:104BF000DFCF4BE150E168E270E1DACF4DE15DE0FB
:104C00006FE07DE0D5CF4FE05DE06DE17DE0D0CF9E
:104C100081E00E944E10E5CD0B356CE7160719F1C7
:104C20000C351C4709F060CE8091180782FB88275D
:104C300080F991E089270E943C1256CE0E942115EE
:104C40008FEF94E3ACE081509040A040E1F700C0CA
:104C500000000E94FC0E6FEF7FEF80E090E00E946A
:104C600055350E94431580E0E6CFC8010E94E30855
:104C700089834BCE843009F4CFC0CC20B1F0809131
:104C8000160780FD12C0D70115961C928695869551
:104C900086950E940812C7010E94D81F80911607AE
:104CA0008695869586950E94141260E0C7010E9441
:104CB000AE0BA7CD893009F451C18A5F8F70823065
:104CC000E0F62D81223F09F05CC189818F710111CD
:104CD00055C10E940812EFC03981303110F0129591
:104CE000107F0023B1F0112361F08D81805E883048
:104CF00018F04D81411107C0812F0E9441090E9487
:104D000053128D812EC080911907812B8093190732
:104D1000F6CF8D810E945713112309F4AECF8D81F8
:104D2000805E883018F05D81511104C0812F0E948F
:104D3000470906C0109580911907812380931907B0
:104D40000E9453129ACF8091180782FD14C000234D
:104D500059F0112329F0812F0E9441090E9453121A
:104D600080E00E94C81289CF80E00E94571311236F
:104D700009F483CFDBCF0023A1F0D11004C0812F31
:104D80000E94A5127ACF81E0D81277CF80911207C6
:104D9000912F9823191709F470CF182B109312072D
:104DA0006CCFD1106ACF812F0E94B612909112075A
:104DB000812F8923882329F0812F8095892380934F
:104DC000120780911307912F9823992309F455CF47
:104DD000109518231093130750CF002329F091E06A
:104DE0009D1508F44ACFCBCFD11047CF812F0E9419
:104DF000B61243CFDD20D1F3AD81A93349F4BFEF23
:104E0000E7EEF3E0B150E040F040E1F700C0000011
:104E10008D810E94571331CF898186958695837045
:104E2000882369F0813009F028CF8D8199819370B2
:104E3000011102C080E090E00E94050E1ECF8D811E
:104E400099819370011102C080E090E00E94DF0D13
:104E500014CF8981837081113EC001112CC04D8116
:104E6000429546954770440F440F8D818F70042EF4
:104E700001C0880F0A94EAF72D8120712D83222327
:104E800049F02FE030E001C0220F4A95EAF7422FA7
:104E900040954D835981569556955370523091F0F7
:104EA0005330B1F020911407513041F06D81862BC1
:104EB00082230E94B1080E94CE0DDFCE822B7D811D
:104EC000872BF7CFAD818A2B909114078927F1CFDB
:104ED000BD818B2BEECF002381F1E981E0FFEBCF89
:104EE0004D81429546954770440F440F8D818F70D8
:104EF000042E01C0880F0A94EAF7FD81F071FD834A
:104F0000FF2349F02FE030E001C0220F4A95EAF775
:104F1000422F40954D835981569556955370523086
:104F2000A1F05330C1F020911507513051F06D813F
:104F3000862B82230E94FD11BECF823008F4BBCFA6
:104F4000CFCF822B7D81872BF5CFAD818A2B90919E
:104F500015078927EFCFBD818B2BECCFE981EF704F
:104F6000E983002339F08E2F0E9408128D810E9460
:104F7000A512A1CF8D810E94B61289810E941412C0
:104F80009ACFFD81F33F70F4F03FC1F0F13FE1F1C2
:104F9000002309F465C0DD2009F45FC08D810E9403
:104FA000C81289CF2D81233FF9F0243F49F1011127
:104FB000F2CFD11064C089818F71E0CF002379F0E6
:104FC000D11079CF39813F7181E090E0AC0101C00F
:104FD000440F3A95EAF7809115078427ABCF51E04B
:104FE0005D1508F468CFEECF80E0002309F4A2CF6E
:104FF00069816F7181E001C0880F6A95EAF79ACFE5
:105000008091180782FD06C089818F71002309F401
:10501000B5CF5FCE0023B1F079817F717983872F7F
:105020000E9408128091180782FF0AC0B981A8E087
:10503000BA9FC00111248360809316078B2F49CE3D
:10504000898147CE81E00E942412E1E0ED1508F04D
:1050500032CF82E00E9424122ECF89818F7139CE07
:10506000DD2009F4A8CFFD81F93349F42FEF37EEA5
:1050700043E0215030404040E1F700C000008D8106
:105080000E94571318CF80915A07803178F480918D
:105090005907882359F0E0911B0720911A07309196
:1050A00055074091540757E02E1301C008956E2F05
:1050B00070E05E9FF0011124DF01A45EB84F1496EA
:1050C0008C911497882361F111968C911197831319
:1050D00027C08C91841324C015968C91159781114B
:1050E0001FC012968D919C91A0915607B0915707C1
:1050F0008A1B9B0B843B910598F480915A078F7013
:10510000806180935A07EE5DF84F80818F708061D7
:10511000808384E597E00E94D81F0E9411090895BA
:10512000FB013196E770C0CFADE0B0E0EAE9F8E20C
:105130000C9471348C0186E0F801DE011896019020
:105140000D928A95E1F7D8019C911596DC90159700
:105150001296AD90BC9013971496FC90149784E52A
:10516000882E87E0982EC0905807C11020C0FF20DD
:10517000D9F0DD2009F453C1C8010E94DD0B88235A
:1051800009F44DC187E0F801D40101900D928A9590
:10519000E1F7B1E0FB1206C08091540790915507EA
:1051A0000E94CE0B0E944328FF24F39432C0E0906B
:1051B00059072091560730915707F501E21BF30B71
:1051C000EE2009F4FCC0E43BF10508F0DAC0FF2052
:1051D00059F33091550711962C91119780915A07E8
:1051E000803108F093C0FD2C231318C03091540770
:1051F000391314C0D11084C08F70806180935A0716
:1052000084E597E00E94D81F80915A07F8018683B1
:10521000F12C8F2D2D96ECE00C948D34D11070C0B4
:10522000E0911B0780911A07AE2F37E0A81317C033
:1052300037E08E1337C0888599850E94CE0B292FC1
:1052400022952F70903408F441C02A5F2F702230CD
:1052500008F450C0C8010E94D81FFE2CDACF4A2F94
:1052600050E03A9FD0011124A45EB84F11966C9182
:105270001197261307C06C91961304C015966C9174
:10528000611104C0DA011196A770D0CF84E597E0D0
:105290000E94D81F87E0E4E5F7E0DF011D928A95C0
:1052A000E9F7B6CF4E2F50E03E9FF0011124E45EA7
:1052B000F84F6181261306C06081961303C0658193
:1052C0006111A6CFFA013196E770B3CF9F702230FB
:1052D00038F0992351F0F8019681903130F499CF4C
:1052E000992319F0882309F494CF805E883008F45C
:1052F00090CFB0CF803F08F48CCF815F8230F7CF62
:1053000080915A07816080935A0782CF231314C07B
:1053100020915407291310C0D1100EC016968C93FB
:10532000C8010E94D81F87E0F801A4E5B7E001900A
:105330000D928A95E1F738CFC8010E94DD0B8823D2
:1053400009F46DC0DD2009F46AC080915A078032EB
:1053500078F020915407309155073A832983BC8215
:10536000AB82CD821E828F83CE0101960E94D81F10
:1053700087E0F801A4E5B7E001900D928A95E1F786
:1053800011CF80915A07803108F480CFFF2009F4B3
:105390000BCF30915507F80121813213CDCF2091E9
:1053A00054072913C9CFD110C7CF8683C8010E94E3
:1053B000D81F87E0D4011D928A95E9F7F5CEE43B2A
:1053C000F10588F5FF2009F4EFCEDD2041F12091B1
:1053D0005507F8018181281318C08091540789135B
:1053E00014C080915A0780FD9ECF803108F49BCF76
:1053F0008683807F803F09F493CF8681982F907FAA
:10540000905F8F70892B86838BCFC8010E94DD0B44
:105410008111AECF80915A07816080935A07C801ED
:105420000E94D81FC1CE87E0D40138CFABE1B0E0F5
:10543000ECE1FAE20C947A344E8B5F8B688F798FB3
:105440008A8F9B8F9111109219071D8A86E0FE01A9
:105450007696DE011F9601900D928A95E1F78B8971
:10546000882329F061E0CE010F960E94AE0B87E001
:10547000FE013F96DE01189601900D928A95E1F7A4
:10548000CE0108960E94942881112BC087E0FE016E
:105490003896DE01119601900D928A95E1F72091E0
:1054A0001A0740911B078C858823D9F030E0C90189
:1054B00001968770992750E084179507E9F097E0E7
:1054C000929FD001939FB00D1124A45EB84FFE01AE
:1054D000319601900D929A95E1F780931A070E94F8
:1054E000110917E080911B0790911A07891312C0C8
:1054F0006B96E3E00C9496340E94211510921A07E3
:1055000010921B0787E0E4E5F7E0DF011D928A9522
:10551000E9F7E7CF189FC0011124845E984F0E94DD
:105520009428882329F380911B0790E001968770C7
:10553000992780931B07D6CFA6E0B0E0E2EAFAE213
:105540000C9479340E94621F8C0180918F06909197
:1055500090068017910779F019821A820E94621FC3
:10556000BC0149815A8180E090E00E94162A109384
:10557000900600938F062696E4E00C949534A0E103
:10558000B0E0E5ECFAE20C9470341A821982FE0164
:10559000339686E0DF011D928A95E9F785E8A82E0B
:1055A00082E0B82E8E010F5F1F4F4801EE24E39476
:1055B000F12C2FE8C22E22E0D22EF50181915F015D
:1055C0008F3F09F441C0F894E82FE295EF70F0E0C6
:1055D00021A18F70A70102C0440F551F8A95E2F7E1
:1055E000CA01922F982B91A392A18095892382A31F
:1055F000789400C0E9E8F2E031E0712C21912F3F6E
:1056000009F497C0A22FA295AF70A05EB0E08C9174
:1056100090E02F7002C0959587952A95E2F78170EA
:10562000811187C0832F782A330FCE16DF0631F71A
:10563000F501319780818F3F11F00E94050C50EAEF
:105640005A95F1F7D8017C920F5F1F4FB9E8AB165E
:10565000B2E0BB0609F0B1CF48E050E0B40181E10F
:1056600094E00E94F33400911A0410E0015E1B4F95
:10567000892B09F460C088E0F401A1E1B4E0019055
:105680000D928A95E1F781E0809303030E94621FE7
:1056900090930203809301038091EB06882309F421
:1056A000A3C01A8619861C861B8680910C038A303B
:1056B00008F063C07E01E9E0EE0EF11C46EA5DE110
:1056C000B701C8010E949F116701882309F47AC0BD
:1056D00047E75DE1B701C8010E949F11882309F4E3
:1056E00071C047ED5CE1B701C8010E949F1188239A
:1056F00009F468C046E85DE1B701C8010E949F1146
:10570000882309F45FC010920C038091190490E083
:1057100044E050E0B601815E9B4F0E94F33421E0EB
:1057200020930003892B09F03FC06096EDE00C94B4
:105730008C3480E078CF80910303882309F4ACCFC8
:1057400080910103909102030E946E1F059708F457
:10575000A3CF44E050E061E174E0C8010E94F3345B
:10576000892B41F084E0E1E1F4E0D80101900D9251
:105770008A95E1F7109203038FCF8091FE029091FA
:10578000FF020E946E1F843F914008F093CF8091EA
:105790000003882351F2FE01399684E0DF011D9257
:1057A0008A95E9F710920003E0911904F0E0E15EB8
:1057B000FB4F89859A85AB85BC8580839183A283C5
:1057C000B383B3CF80910C038F3F39F40E94621FE3
:1057D0009093FF028093FE02DACF8F5F80930C03D9
:1057E0008A3008F492CFF2CFE0901904F12CF7013F
:1057F000E15EFB4F7F01F80180819181A281B3813D
:105800008093760690937706A0937806B0937906F6
:1058100086E796E00E9435108093750680917A069F
:1058200090917B06A0917C06B0917D06F701808364
:105830009183A283B383C0907E06D0907F06E090D0
:105840008006F09081068091FA029091FB02A0916F
:10585000FC02B091FD02C816D906EA06FB06B1F0BB
:10586000C092FA02D092FB02E092FC02F092FD029A
:105870000E948C0EC61AD70AE80AF90AC0928B0653
:10588000D0928C06E0928D06F0928E0688E0E2E8D7
:10589000F6E0A9E0B7E001900D928A95E1F745CFD7
:1058A000CDB7DEB762970FB6F894DEBF0FBECDBF9F
:1058B00085B7806885BF85B7806885BF84B7877FD7
:1058C00084BF0FB6F894A89580916000886180939A
:1058D0006000109260000FBE80E890E00FB6F89470
:1058E00080936100909361000FBE83E09CE09093F1
:1058F000D1028093D0020E94BA0F0E94B41080910E
:10590000E20084608093E200789480911E048823F2
:1059100099F08091E9001091EC00179511271795E7
:105920008F70182B1092E9008091E80083FD0E948F
:1059300059151F701093E90082E084BD93E095BD76
:105940009AEF97BD80936E0010928B0610928C0692
:1059500010928D0610928E0688EC90E02091E30064
:1059600027FD30C3AFE3BCE91197F1F700C0000099
:105970000197009799F70E94BA0F10921E04109297
:10598000EB0681E08093EC068093170124C383E04B
:1059900090E00E9419350E94B1088091EB068111B8
:1059A0000E94E8110E942B0D80E090E00E942135BA
:1059B000863E9E4F21F00E94F8180E94651981E0F2
:1059C0008093080748E050E068E170E089E097E0E4
:1059D0000E9409351092080780910907843010F45D
:1059E0000E9465198CE090E00E9419358093F306BF
:1059F00010921B04843019F084E08093F3068091A8
:105A0000EB06882309F494C093E080E29093590652
:105A1000809332040E949D316BE070E085E59AE04E
:105A20000E94481E8823E9F08091590665E070E0E5
:105A300081FD81C080E59AE00E94481E882389F09C
:105A40006DE070E08EE39AE00E94481E882349F0E2
:105A50000E94E81181E080935F06809338041092E1
:105A60005A068091EB06811102C00E94F73288E14C
:105A700091E09093B2068093B1066624639480917E
:105A80001E04853049F480911E04853009F456C007
:105A90000E9421150E94CE0D0E94BF2A08E214E048
:105AA0007FE1E72E74E0F72ED701F80191918D91F7
:105AB00024E0E033F20709F4A6C09817B9F3809008
:105AC000EB06D12CD701CD907D01F80191908F018B
:105AD0009C1439F19C24B12CAA24A3948A2D8921E9
