:100000000C9454080C9471080C9471080C941E30D4
:100010000C9471080C9471080C9471080C9471087C
:100020000C9471080C9471080C945E2D0C94362E6F
:100030000C94651E0C9471080C9471080C94710852
:100040000C9471080C9471080C9471080C9471084C
:100050000C9471080C943A2D0C9471080C9471084E
:100060000C9471080C9471080C9471080C9471082C
:100070000C9471080C9471080C9471080C9471081C
:100080000C9471080C9471080C9471080C9471080C
:100090000C9471080C9471080C9471080C947108FC
:1000A0000C9471080C9471080C94710800021E1EC7
:1000B0001E1C1C7C684000000000000000000000C6
:1000C0000000000000000000000000000000000030
:1000D000000000000000E0F8FCFEFEF8FEFEF0F874
:1000E000FEFEFCFC7878F8B0A000000000000000E4
:1000F00000000000000003030301010101010303EC
:100100000F1F7F3706060703010000003838787894
:1001100030F020000000000000000000000000009F
:10012000C0C0C0808080800000000000000000008F
:10013000000101010000C0F0F0E0C8FCFCF0E0FCB0
:10014000FCFEFFFFFFFFCFCF737E1000000000001A
:100150000000000000100F0F0F0F07070303030339
:100160000101010101010303030000003878387028
:1001700070F000000000000000000000000000001F
:10018000000000000000000000000000000000006F
:1001900000010302000000C0E0E0E0F8F8E0FCFD30
:1001A000FFFFFFFE9E9EFEEC7000000000000000BE
:1001B0000000000000000003070F1F3F1F07070398
:1001C00003030F0F010101000000000000000E0EEC
:1001D0000E0E1CFCD8800000000000000000000093
:1001E000000000000000000000000000000000000F
:1001F0000000000000000000F0FCFCF0FCFCF0FE41
:10020000FEFCFCFC78F8B8E00000000000000000F4
:1002100000000000000000000003030707070F3B79
:100220001F0F070606070301000000000000000082
:1002300000003E5B4F5B3E003E6B4F6B3E001C3E42
:100240007C3E1C00183C7E3C18001C577D571C004F
:100250001C5E7F5E1C0000183C180000FFE7C3E72F
:10026000FF00001824180000FFE7DBE7FF0030481C
:100270003A060E00262979292600407F0505070049
:10028000407F05253F005A3CE73C5A007F3E1C1C3E
:100290000800081C1C3E7F0014227F2214005F5FB0
:1002A000005F5F0006097F017F00006689956A0094
:1002B00060606060600094A2FFA2940008047E0465
:1002C000080010207E20100008082A1C0800081CC6
:1002D0002A0808001E10101010000C1E0C1E0C0026
:1002E00030383E383000060E3E0E0600000000009A
:1002F000000000005F000000000700070000147FFE
:10030000147F1400242A7F2A120023130864620039
:10031000364956205000000807030000001C224107
:1003200000000041221C00002A1C7F1C2A00080833
:100330003E08080000807030000008080808080027
:100340000000606000002010080402003E51494592
:100350003E0000427F400000724949494600214169
:10036000494D33001814127F1000274545453900C8
:100370003C4A4949310041211109070036494949A0
:100380003600464949291E000000140000000040C4
:100390003400000000081422410014141414140046
:1003A0000041221408000201590906003E415D592E
:1003B0004E007C1211127C007F49494936003E41B3
:1003C000414122007F4141413E007F49494941006E
:1003D0007F09090901003E41415173007F08080867
:1003E0007F0000417F4100002040413F01007F0825
:1003F000142241007F40404040007F021C027F00E9
:100400007F0408107F003E4141413E007F090909F9
:1004100006003E4151215E007F0919294600264908
:100420004949320003017F0103003F4040403F0043
:100430001F2040201F003F4038403F006314081435
:1004400063000304780403006159494D4300007FB1
:1004500041414100020408102000004141417F0059
:10046000040201020400404040404000000307082D
:1004700000002054547840007F2844443800384419
:1004800044442800384444287F0038545454180009
:1004900000087E0902001824241C78007F08040448
:1004A000780000447D4000002040403D00007F1067
:1004B0002844000000417F4000007C04780478005C
:1004C0007C08040478003844444438007C18242410
:1004D0001800182424187C007C08040408004854E0
:1004E0005454240004043F4424003C4040207C0039
:1004F0001C2040201C003C4030403C004428102878
:1005000044004C9090907C004464544C440000089B
:10051000364100000000770000000041360800006E
:100520000201020402003C2623263C0000000000D9
:10053000000000000000000000000000C0E0F0F833
:10054000F81800C0F0FCFEFFFFFFFFFFFFFF7E007A
:10055000000000000000000080C0E0E0E0E0E0E01B
:10056000E0E0C0800000000080C0E0E0E0E0E0E00B
:10057000E0E0C080000000E0E0C0C0E0E0E0E000BB
:1005800000E0E0C0C0E0E0E0E0E0C080000000008B
:1005900080C0E0E0E0E0E0E0E0E0C08000000000DB
:1005A00000000000000000000000E0F0F0F0E0ECCF
:1005B000EEF7F37020007C7C7C7E007E7E7E7F7F69
:1005C0007F000080C0E07E5B4F5BFEC00000C0008B
:1005D000DCD7DEDEDED7DC00C0000000000000005B
:1005E000000000000000000000000000000000000B
:1005F0000000000000F8FCFEFFE000FFFFFFFFFF2F
:10060000FF80FFFFFFFFFFFFFFFFFF1F070100004D
:1006100000000000000000FFFFFF8100000000005C
:100620000081C3C3C30000FFFFFF81000000000082
:100630000081FFFFFF0000FFFFFF0100000000003E
:1006400000FFFFFF010000000001FFFFFF0000FFAF
:10065000FFFF9D1C1C1C1C1C1C9DDFDFDF0000001D
:10066000000000000000000000000F1F3F7F7F7FA0
:100670007F7F3F1E0C001F1F1F3F003F3F3F7F7FBC
:100680007F00307B7F7830202030787F3B00030074
:100690000F7F0F0F0F7F0F0003000000000000000E
:1006A000000000000000000000000000000000004A
:1006B0000000000000030F1F3F3F3F3F1F1F3F3F51
:1006C0007F7F7F3F3F1F3F7F7F7F7F7C7878381C15
:1006D0000F000000000000000103070707070707DD
:1006E00007070301000000000103070707070707CA
:1006F00007070301000000070707000000000000D3
:1007000000070707000000000000070707000000BF
:100710000103070707070707070703010000000099
:1007200000000000000000000000000000000000C9
:1007300000000000000000000000000000000000B9
:1007400000000000000000000000000000000000A9
:100750000000000000000000000000000000000099
:1007600000000000000000000000000005010980FA
:10077000A101850319012AB700150126B7009501CB
:1007800075108100C0050C0901A101850419012A19
:10079000A002150126A002950175108100C0050177
:1007A0000906A1018506050719E029E715002501BD
:1007B0009508750181020507190029EF150025012B
:1007C00095F0750181020508190129059505750146
:1007D0009102950175039101C005010906A101056A
:1007E0000719E029E7150025019508750181029593
:1007F00001750881010507190029FF150026FF0072
:1008000095067508810005081901290515002501BF
:10081000950575019102950175039101C009023B8F
:1008200000020100A0FA090400000103010100090F
:10083000211101000122440007058103080001097C
:100840000401000103000000092111010001226DD3
:1008500000070582032000011201000200000008C9
:10086000534601000100010200010C0343006F0028
:1008700072006E0065000000100366006F006F00DC
:100880007300740061006E0000000403090400009E
:100890000000000000000000000000000000000058
:1008A0000000000000000000000000000000000048
:1008B00000007E0F00D4FFFFFFC70000007800009B
:1008C0000000000000002A2B2800000000000000AB
:1008D00000000000000000000029000000002C1EA5
:1008E0003420212224342627252E362D3738271E62
:1008F0001F202122232425263333362E37381F0488
:1009000005060708090A0B0C0D0E0F10111213141F
:1009100015161718191A1B1C1D2F3130232D3504DD
:1009200005060708090A0B0C0D0E0F1011121314FF
:1009300015161718191A1B1C1D2F3130354C0001C4
:10094000010101010101010102020202020202028F
:100950000203030303030303030404040404040461
:100960000505050505060606060607070707070825
:10097000080808090909090A0A0A0B0B0B0C0C0CD8
:100980000D0D0D0E0E0E0F0F0F1010111111121272
:1009900013131414151516161717181819191A1AEF
:1009A0001B1B1C1D1D1E1E1F202021222223242450
:1009B000252626272829292A2B2C2D2D2E2F30318C
:1009C0003232333435363738393A3B3C3D3E3F409E
:1009D0004142434445464748494A4C4D4E4F505189
:1009E0005354555658595A5B5D5E5F616264656643
:1009F00068696B6C6D6F7072737577787A7B7D7ECA
:100A00008082838587888A8C8E8F91939596989A19
:100A10009C9EA0A2A3A5A7A9ABADAFB1B3B5B7BA31
:100A2000BCBEC0C2C4C6C9CBCDCFD1D4D6D8DBDD05
:100A3000DFE2E4E7E9EBEEF0F3F5F8FAFDFF00DAC8
:100A40000281FFD9F1DB20A4A62EAF00A0C0D30005
:100A500000A1C8D30000AED580A81F408D1420008F
:100A600000AE000000000000000080000000000058
:100A700000000000FFFFFFFFFFFFFFFFFFFFFFFF82
:100A8000FFFFFFFFFFFF7F3F1F1F0F0F0F1F1F3FC6
:100A9000FFFFFFFF0000000000000000000000005A
:100AA0000000000000000000000000000000000046
:100AB0000000000000000000000000000000000036
:100AC0000000000000000000000000000000000026
:100AD0000000000000000000000000000000000016
:100AE000000000000000000000005F464646464649
:100AF00046C60000FFFF7F3F3F3FFF7F0F0301011E
:100B000000C0FC1F03000000000000000080C0F0D7
:100B1000FFFFFFFF000000000080C0603030303079
:100B20002060C0800000C0E060303030302060E0E5
:100B3000C0000000F0E0603030300000F0E06030D5
:100B400030303060E0C0000080C060203030303095
:100B500060C08000000000000000000000000000F5
:100B60000000000000000000000066E6E4A4BCBC39
:100B7000B8190000FFE3000000000F300000000083
:100B800000011F0000000000000000007CFFFFFFCC
:100B90007F1FFFFF00000000001F396040C0C0C081
:100BA0004060301800073F386040C0C0C04060302F
:100BB0003F0F0000FF00000000000000FF7F00006A
:100BC000000000007FFF00001F3F6242C2C2C2421D
:100BD000623303000000000000000000000000007D
:100BE000000000000000000000000C0404060602E3
:100BF00003030000FFFFFFFEFCF8F8F8FCFEFCF822
:100C0000F8F8F8F8F8FCFCF8F8F0F0F0F0F0F8F884
:100C1000FCFEFFFF000000000000000000000000DC
:100C200000000000000000000000000000000000C4
:100C300000000000000000000000000000000000B4
:100C400000000000000000000000000000000000A4
:100C50000000000000000000000000000000000094
:100C60000000556E646566200A0020454D4F0A203D
:100C70004A49530A20320A0020454D4F0A204A496A
:100C8000530A004D415955530A200A20004D41593D
:100C900055530A204341500A2000200A00204456A0
:100CA0004F0A2052414B0A002041444A0A20555322
:100CB000540A00204E41564920474154450A00201D
:100CC00053494D42204F4C530A004D415955530A48
:100CD000200A20004D415955530A204341500A2013
:100CE00000200A00205157450A205254590A004C4E
:100CF000415945520A0000AF005714001A0008007D
:100D0000150017002F2204001600070009000A0032
:100D100003571D001B00060019000500000000001D
:100D20000000E300C1522C412A00130012000C0005
:100D300018001C00280033000F000E000D000B00EF
:100D40002B003800370036001000110000000000B2
:100D500000000157C2522C4229002D001F02200220
:100D600021026400E1004B0052004E0030022402D8
:100D7000E000500051004F003500008000000000EE
:100D80000000E300C3522C002A002702260225029D
:100D90002302220228000180310034002E022E009E
:100DA0002B001414310234021E022D020000000038
:100DB00000000157C5522C4529004B0052004E003F
:100DC00076004600E100500051004F0079000257C4
:100DD0000157B2006700A800AA00A90000000000A7
:100DE0000000E30000002C432A00570020001F00F1
:100DF0001E00540028005600230022002100550048
:100E0000E0002700260025002400850000000000E7
:100E100000004C00C4522C002B782C782D782E78B2
:100E20002F783078217823782578277829783178B9
:100E300022782478267828782A78327800000000F2
:100E40000000E30000522C0030782F782E782D78A7
:100E50002C782B7828002978277825782378217812
:100E600020782A78287826782478227800000000D4
:100E700000004C0000002C0000572D003600370009
:100E800013001C002F2204001200080018000C00A0
:100E90000357360214000D000E001B000000000076
:100EA0000000E30000002C002A000F0015000600DF
:100EB0000A00090028001600110017000B000700A7
:100EC0002B001D0019001A00100005000000000092
:100ED0000000015700522C00290002800480068087
:100EE000058007801080408011801A800D8012805C
:100EF000258014802A8031801E800E800000000032
:100F00000000418000002C462A000C8003800A80EB
:100F100009800480280022802680178015802E807A
:100F20002B002880278021800F800880000000008F
:100F300000004C00C652010029002B802C8032801A
:100F40000B80198043803480368038802480138061
:100F50003380358037803C80188029800000000075
:100F600000004280208001002A001D801C801B8020
:100F70001680238028003A803D80398030802F8081
:100F80002B003B803F803E802D801F8000000000B2
:100F900000004C0000522C005C0000005E000000CD
:100FA00000F6010002F6010001F6010064270000CE
:100FB0000DF601002DF601000AF6010012F60100FF
:100FC00018F6010095F4010029F601004CF4010027
:100FD00014F601000FF601007B26000009F601005F
:100FE0004DF401004EF401004FF601000CF6010033
:100FF000B6F3010033F601004CF6010022F60100C1
:101000000EF6010048F6010049F601004AF601001B
:10101000A9F4010040F401000C27000094F4010041
:1010200034F6010005F60100AFF4010015F60100E9
:101030001CF601001EF601000BF601004FF4010042
:1010400031F6010008F6010007F601004BF401003B
:101050000026000014F3010080F4010023F90100D0
:1010600010F9010000F4010004F4010018F401007B
:1010700015F401000EF401007AF3010042F90100B9
:101080007EF30100AEF301006EF40100BBF4010039
:10109000B2F40100C1F6010016F601004AF40100A5
:1010A000CBF301003EF4010011241FBECFEFDAE0C4
:1010B000DEBFCDBF12E0A0E0B1E0E8EFF4E602C091
:1010C00005900D92AA3CB107D9F727E0AAECB2E04F
:1010D00001C01D92A332B207E1F70E943C290C9493
:1010E0001B320C9400009C01FB019A9581159F41D5
:1010F00020F5D901AA27B270832F8170B901662724
:101100007470A9014427587034FF0DC08295807F08
:10111000AB2B09F08062672B09F08064452B09F046
:10112000806809950895AB2B09F08260672B09F060
:101130008460452BB1F38860F4CF80E0F2CF982F24
:1011400082958F70882311F0982F84E0292F26959F
:101150002695222311F08E5F922F969591118F5F25
:1011600008958093DC060895292F983058F586302D
:1011700048F590E036E0239F800D911D1124282F23
:101180002770E1E001C0EE0F2A95EAF740E050E059
:10119000887F8B56994F70E0DC01A40FB51FFC913E
:1011A0009B01042E02C0369527950A94E2F7217020
:1011B00021952F272E232F272C934F5F5F4F4830E9
:1011C000510551F70895983050F5863040F5282F95
:1011D00030E086E0989F200D311D1124922F9770EA
:1011E00060E070E080E0287F2B56394FF901E60F70
:1011F000F71F408150E0092E02C0569547950A948A
:10120000E2F741705527062E01C0440F0A94EAF711
:10121000842B6F5F7F4F6830710541F7089580E040
:1012200008958091E3069091E206981301C0089515
:101230008F5F8770FACF8091D9069091E106892B54
:101240005091DA065523C1F0909151019923A9F0EC
:101250009091DF0697FF11C09DE126ED32E040E05E
:10126000F90160812F5F3F4F61114F5F9150C0F7CF
:1012700041111092DA06852B089595E02EEC32E0AC
:10128000EECF982F90958091D90689238093D90627
:1012900008957830B8F46630A8F48730B0F4E62FBB
:1012A000F0E096E0799FE00DF11D112490E3899F15
:1012B000E00DF11D1124EE0FFF1FE850F34F859153
:1012C0009491089580E090E0089581E0FCCF803E05
:1012D0009105D1F1C8F48133910509F47FC048F438
:1012E0008932910509F46FC08A32910509F47DC0F5
:1012F000089589339105E1F082389105C9F085336D
:10130000910509F45BC00895843E9105D1F148F43C
:10131000823E910531F1833E910541F181EE90E0ED
:101320000895863E9105C1F1873E9105E1F108954A
:101330002091DF062370211165C02091E00623FF74
:1013400014C089E290E008952091DF0620FD43C09B
:101350003091E00630FF09C024FF4EC080E090E0ED
:1013600008952091DF0622FDF7CF08952091DF0632
:1013700022FD45C03091E00630FD44C024FFF5CF8A
:10138000EDCF2091E00621FFF0CF8091DF0684FDB4
:10139000E5CF87EE90E008952091DF0623FFE5CFAB
:1013A00024FDDCCFF6CF2091DF0623FD2EC0309147
:1013B000E00631FFE3CF84EE90E008952091DF0650
:1013C00025FFD3CFBECF2091DF0625FD21C0209180
:1013D000E00623FFCACF89E390E008952091DF065D
:1013E00026FFC3CF8AE290E008952091DF0626FF12
:1013F000BCCF81E390E0089583EE90E0089582EE03
:1014000090E0089580EE90E0089586EE90E00895D3
:1014100085E390E0AACF9091DF0692FF10C041E0F3
:10142000282F2471243009F040E031E0282F287162
:10143000283009F030E0431711F02CE0822793FFA9
:1014400010C041E0282F2471243109F040E031E040
:10145000282F2871283109F030E0431711F02CE0D3
:1014600082273091E00630FF10C051E0282F217113
:10147000213009F050E041E0282F2871283009F090
:1014800040E0541711F029E0822731FF10C041E0FD
:10149000282F2171213109F040E031E0282F2871F7
:1014A000283109F030E0431711F029E0822794FD3C
:1014B000877E08951F93CF93DF930E946709EC0105
:1014C000811522E5920708F053C0811540E5940785
:1014D00008F0DDC0803E9105F8F48D3C910508F0E0
:1014E000AEC0883A910580F4853A910508F099C01C
:1014F0008130910521F00497813A910550F4CE0195
:10150000DF91CF911F910895885A91094B9708F464
:101510008BC0C0E0D0E0F3CF811550E49507F8F41C
:10152000C11580E2D80708F0CBC0C83ED10538F31A
:10153000CE019A9581159F4160F78D2F0E940B0A6D
:10154000182FCE0199270E946709212F30E0322FF2
:101550002227E901CC27DF71C82BD92BD0CF9927BF
:101560000E946709CC27DF70C82BD92BD06AC7CF60
:10157000803842E59407C8F5803652E5950708F0B3
:1015800067C0C03482E5D807B0F08C2F8695869569
:10159000877020E2829FC0011124C37021E030E0F7
:1015A000A90102C0440F551FCA95E2F7EA01C82BF2
:1015B000D92BDC68A4CFC03252E5D50708F041C072
:1015C0008C2F8695869520E2829FC0011124C370DE
:1015D00021E030E0A90102C0440F551FCA95E2F78F
:1015E000EA01C82BD92BDD688ACF803C52E59507EC
:1015F00060F48F71C03AD24508F03FC090E0982F58
:101600008827EC01C46FD06A7ACF805C92458097BE
:1016100008F07FCFDC2FCC27CC27DF71C06FD06ADA
:101620006ECFA497D0646BCFC85AD0E0CC0FDD1F2B
:10163000CC56DD4F0990D881C02DD46460CFD065E1
:101640005ECFCF71D0E0DC2FCC27C16FD06A57CFEF
:1016500086958695877020E2829FC0011124C37011
:1016600021E030E0A90102C0440F551FCA95E2F7FE
:10167000EA01C82BD92BDA6842CF0E940B0AC82F87
:10168000D0E0DC2FCC27CC27DF71D06238CF8F7130
:101690000E940B0A65E0D695C7956A95E1F7CF7071
:1016A000D0E0DC2FCC27282F30E084FF05C054E0A9
:1016B000220F331F5A95E1F7C22BD32BD0691FCFCE
:1016C0008D2F8F710E940B0A182FCE0199270E942F
:1016D0006709212F30E0322F222722273F71282B44
:1016E000392BE901D2CFA0E0B0E0E9E7FBE00C94B0
:1016F00058317C010091DD068091DC06082BC7E0A3
:10170000D0E010E0C8010C2E02C0959587950A9490
:10171000E2F780FD09C02197A8F7D12C8D2DCDB718
:10172000DEB7E7E00C947431DC2EB7018C2F0E94F9
:1017300049090E945A0A019771F3F0CF0F931F9342
:10174000CF93FC01858100811181882391F066236C
:1017500081F0C8010E94730BC82F682FC8010E9436
:10176000B408B8018C2F0E944909CF911F910F91A5
:101770000895C8010E94E308C82FF3CFCF93DF93E9
:10178000D82FC92F0E94730B6D2F7C2F0E944909FF
:101790000E945A0ADF91CF910895FC018481882329
:1017A000A1F0808191810E94BE0B282F92959F709D
:1017B000963091F060F4925F9F70923030F481E047
:1017C000203F79F030F4283E30F080E004C09A5F8A
:1017D000F3CF243FD1F7089581E0283E18F0213F50
:1017E000F9CF0895089580E00895F894E82FE295E0
:1017F000EF70F0E041A18F7021E030E0B90102C04C
:10180000660F771F8A95E2F7CB01962F9095942368
:1018100091A392A1892B82A378940895A0E0B0E0CF
:10182000E4E1FCE00C945531E82FF0E0E25CF64F87
:10183000711109C0E4918E2F7E2F6E2FCDB7DEB7C8
:10184000EAE00C947131262F30E0C72FD0E0F491FC
:10185000EF2F86E0829F8001839F100D1124EE24DC
:10186000EA94F12CC801B7010E943931AB01220F73
:10187000331F65E5649FC001659F900D1124281BEF
:10188000390B822F880F280FC7018C1B9D0BF89FE7
:10189000D001F99FB00D11248B2F2C9FB0012D9FEB
:1018A000700D1124672F77275701A61AB70AFA9DE2
:1018B0006001FB9DD00C11247D2D5701A21AB108A7
:1018C00095012C9F50012D9FB00C3C9FB00C112412
:1018D000AB2CBB24EA18FB08FE9DE001FF9DD00D58
:1018E000112443305105C1F00C3F93E0190750F427
:1018F0004130510509F4A1CF4230510589F07E2FC6
:10190000ED2F9BCF4430510571F046305105B9F3AE
:10191000EB2F8D2D7F2F91CFED2D7B2F8F2F8DCF07
:101920007B2F8D2F8ACF7D2FEB2FF8CF982F809193
:10193000C606882329F081E09B3108F080E00895F5
:1019400081E09533FACF1F93172F922FE42FF0E009
:10195000EE0FFF1FE252FE4F408124EE429F412DC9
:101960001124E72FF0E050E09A01245E3F4F291B3D
:10197000310937FF03C031952195310993E0220FDA
:10198000331F9A95E1F7E21BF30BF7FF02C0E0E08B
:10199000F0E07E2F719F712D11241F9108950E94F8
:1019A0001E0D0895FF920F931F93CF93DF93182F6F
:1019B000062FF42EC0E0D0E02F2D402F612FCE0156
:1019C0000E94CF0C2196C633D105B1F7CDB7DEB753
:1019D000E5E00C9476319BE0899F802D1124980FCF
:1019E000973308F096E32091C606211104C08B318D
:1019F00028F48BE108959C3108F09BE10895E1ED16
:101A0000F6E0248130E1230F08F42FEF2483809146
:101A1000D00681608093D0060895E1EDF6E0248140
:101A200030E1231B08F420E024838091D0068160FC
:101A30008093D00608951092C6030895FC0180910A
:101A4000C606811123C0EB31F1051CF17B97CF0154
:101A5000880F991FDC01AE0FBF1FAC5DBC4F119604
:101A60003C911197361307C03C91341304C0129671
:101A70003C91321771F031E03093C603E80FF91F43
:101A8000EC5DFC4F61834083228303C0EB31F105A1
:101A9000F4F20895FA01882311F009950895FB01E5
:101AA000FCCFCF93DF93B82FA92F9B0180910A041D
:101AB00090910B0483539440AC01460F571F413063
:101AC000524020F020E032E0281B390B40913506CF
:101AD00050913606EB2FFA2F280F391FC1E0D0E0C6
:101AE0008217930738F05093360640933506DF91FE
:101AF000CF9108956491DC01AD5CBB4F7C9176176A
:101B000079F06C93BC01A5E076956795AA95E1F70D
:101B1000DE0102C0AA0FBB1F6A95E2F74A2B5B2BBE
:101B200001963196DDCFFA01309709F009950895B5
:101B30008091C506882359F0E0918B06F0918C06C0
:101B4000309729F00190F081E02D0995089580E00B
:101B50000895A3E0B0E0EFEAFDE00C945D319C0154
:101B6000809122039091230382179307A1F0309371
:101B7000230320932203E0918B06F0918C0630978B
:101B800051F083E089833B832A830084F185E02D33
:101B9000CE01019609952396E2E00C947931A3E0F9
:101BA000B0E0E5EDFDE00C945D319C0180912003F7
:101BB0009091210382179307A1F030932103209382
:101BC0002003E0918B06F0918C06309751F084E071
:101BD00089833B832A830084F185E02DCE01019621
:101BE00009952396E2E00C94793190915101992363
:101BF000C1F09091DF0697FF14C0E82FE695E695B7
:101C0000E695803FF8F4F0E0EC52FD4F877021E05C
:101C100030E001C0220F8A95EAF78281822B82830D
:101C20000895AEECB2E0EFEF90E02D91821751F005
:101C3000EF3F19F4211101C0E92F9F5F9630A9F7FA
:101C4000EF3F09F408950E2E000CFF0BE453FD4FF7
:101C5000E6CF909151019923E1F09091DF0697FF33
:101C600018C0E82FE695E695E695803FF0F4F0E0A1
:101C7000EC52FD4F877021E030E0A90102C0440F13
:101C8000551F8A95E2F7CA01809592818923828344
:101C90000895EEECF2E09191891303C0DF011197F2
:101CA0001C9252E0E43DF507B1F70895A4E0B0E0DE
:101CB000ECE5FEE00C945D318FB7F89420911C03A5
:101CC00030911D0340911E0350911F0329833A83D5
:101CD0004B835C838FBF69817A818B819C81249641
:101CE000E2E00C947931A4E0B0E0E9E7FEE00C9486
:101CF0005D318091C506882371F00E94560E69837C
:101D00007A838B839C8369817A818B819C812496E1
:101D1000E2E00C9479310E94560E69837A838B83BA
:101D20009C838091650690916606A0916706B091AC
:101D3000680629813A814B815C81280F391F4A1F2F
:101D40005B1F29833A834B835C83DDCFA4E0B0E043
:101D5000ECEAFEE00C945B31462F572FBC012FB705
:101D6000F89480911C0390911D03A0911E03B091E3
:101D70001F032FBF8C019D01041B150B260B370B76
:101D8000C901B8012496E4E00C94773187E797E71E
:101D9000909301088093000888E19AE00FB6F894C8
:101DA000A895809360000FBE90936000FFCF809154
:101DB0001B0308950895FC019B01809111039091EC
:101DC00012038617970740F0672B29F48091E800EB
:101DD0008E778093E800C90140E0009741F44111FB
:101DE00006C08091E80082FF2FC080E00895209116
:101DF000F8032223A9F12530A9F12091E80023FD61
:101E00002DC02091E80022FDECCF2091E80020FFBA
:101E1000E4CF3091F3002091F200009719F02830C0
:101E2000310558F041E02830310509F040E02091BB
:101E3000E8002E772093E800D0CF41914093F10045
:101E400001972F5F3F4FE9CF8091F803882341F03E
:101E5000853041F08091E80083FFC3CF81E0089591
:101E600082E0089583E0089580910B0387FF13C0FB
:101E70008091E80082FF06C08091E8008B77809314
:101E8000E80004C08091F8038111F2CF0895809199
:101E9000F8038823D9F38091E80080FFF8CF809180
:101EA000E8008E77ECCF2091E4003091E50095E6D4
:101EB000A9018091EC008170882331F08091E800C5
:101EC00080FF06C080E008952091E80022FD1BC03D
:101ED0008091F803882391F0853091F08091EB0098
:101EE00085FD10C02091E4003091E50042175307B2
:101EF00001F391509111DCCF84E0089582E00895C0
:101F000083E0089581E00895E8EDF0E080818E7F20
:101F100080831092E2001092DA001092E100A0EEAD
:101F2000B0E08C9181608C9380818F77808319BC25
:101F3000A7EDB0E08C918E7F8C9380818F7E808323
:101F400010920A0308959091D1069370992371F02D
:101F50008093D2066093D306493708F048E7409350
:101F6000D4068091D00681608093D0060895E1ED7B
:101F7000F6E0818190E04381628108960E94A30F80
:101F80000895E1EDF6E08181438162818850990BEB
:101F90000E94A30F0895E1EDF6E0628120E1620F57
:101FA00008F46FEF8181438190E00E94A30F0895B0
:101FB000E1EDF6E0628120E1621B08F460E08181DE
:101FC000438190E00E94A30F0895E1EDF6E0438184
:101FD00020E1420F08F44FEF8181628190E00E947E
:101FE000A30F0895E1EDF6E0438120E1421B08F4E0
:101FF00040E08181628190E00E94A30F0895FC017E
:10200000AC014C5F5F4F8FEF91E32191822728E075
:1020100030E087FF0BC0880F892721503109211537
:102020003105B9F7E417F50781F70895880FF5CF63
:102030009091D1069370992391F0883008F087E051
:10204000880F880F9091D1069370892B8093D106C9
:10205000109292018091D00681608093D0060895FD
:102060008091D106869586958F5F883008F081E053
:102070000E94181008959091D106969596958FEF2D
:10208000890F913009F487E00E9418100895982F65
:10209000E42FE2709093E900891308C0762F242F73
:1020A00050E0E11111C091E0980FF4CF7091EC0075
:1020B0002091ED005091F00021FD06C09F5F973008
:1020C00049F78093E90008953091EB003E7F30930B
:1020D000EB003091ED003D7F3093ED003091EB004F
:1020E00031603093EB007093EC002093ED0050933F
:1020F000F0002091EE0027FDE1CF0895A0E0B0E0D0
:10210000E4E8F0E10C945731C8EDD0E088818F7E8F
:102110008883E7EDF0E080818160808384E082BF86
:1021200081E080930A0388818E7F888302EE10E02D
:10213000F80110821092DA0081EEC82ED12CF6013F
:10214000108288818F7788838881806888838881DE
:102150008F7D888319BC1092F803109209031092A6
:10216000F7031092080390EEE92EF12CF70180811D
:102170008B7F808388818160888342E060E080E09B
:102180000E944710F60180818E7F8083F801808154
:1021900081608083808188608083F70180818E7F69
:1021A0008083888180618883CDB7DEB7E8E00C94B6
:1021B00073318091C603882341F1539A3BB1377F35
:1021C0002BB128604FB7F89484E293E0FC010196AC
:1021D000508168E02BB9000000C057FF3BB9550F94
:1021E000000000C000C000C03BB900C06A9591F774
:1021F00053E0863C950751F74FBF8FE594E0019778
:10220000F1F700C000001092C60308950F931F93CA
:10221000CF93DF93EB018A019091F803943079F525
:102220008093E9008FEF9091E80095FD07C095ED50
:102230009A95F1F7000081508111F5CF8091E80067
:1022400085FF1DC00E94530F811114C08091E800CA
:1022500085FD06C08091E8008E778093E800F2CF7C
:1022600088818093F100015011090115110511F0C9
:102270002196ECCF8091E8008E778093E800DF9183
:10228000CF911F910F910895CF93DF93D82FC92F2E
:1022900048E050E0682F792F81E00E94061188E025
:1022A000ED2FFC2FA3E1B3E001900D928A95E1F7A9
:1022B000DF91CF910895BC0140E250E082E00E949E
:1022C00006110895BC0143E050E082E00E9406112F
:1022D0000895A0E0B0E0EFE6F1E10C945531F82E5E
:1022E000E92EB62EA72E8A0180910603CC24C39432
:1022F000D12C8A3018F48AE0C82ED12CC1E0D0E06D
:102300006B2D7A2D8F2D9E2DF8010995811116C008
:102310002196CC16DD0694F0CC9FC001CD9F900D88
:10232000900D112420E030E045E34A95F1F70000DC
:102330002F5F3F4F28173907B9F7E2CFCDB7DEB788
:10234000EAE00C9471316091CD068CE090E00E943F
:10235000F73108951092F50384E08093CD060E9432
:10236000A3110895E3E3F4E080E092E0DF019C0133
:102370001D9221503040E1F7F0930B04E0930A04E2
:102380008FEF9FEF90933606809335060895CF9395
:10239000C82F8091C50681110E94B211C093DD063D
:1023A000CF91089521E030E001C0220F8A95EAF72D
:1023B0008091DD06822B0E94C711089521E030E054
:1023C000A90102C0440F551F8A95E2F7CA01809502
:1023D0009091DD0689230E94C71108959091DE0631
:1023E000809589238093DE06282F277021110DC048
:1023F000891759F09091E00692FF07C0869586955F
:1024000086950E94DE111092DE0608959091E006F6
:1024100092FB222720F9281779F080FB92F99093FC
:10242000E0066091DF067091E00684E090E00E9493
:10243000153282E00E94EE110895809151018823A7
:1024400059F18091DF0687FF27C00E941B09809306
:10245000D50240E250E06BE676E084ED92E00E9427
:10246000B331892BC1F080E2E4EDF2E0ABE6B6E0F7
:1024700001900D928A95E1F7E0918B06F0918C0620
:10248000309749F086E08093D4020480F581E02DF6
:1024900084ED92E0099508950E941B098093CC0277
:1024A00048E050E06DE876E08CEC92E00E94B331B9
:1024B000892B89F388E0ECECF2E0ADE8B6E001901E
:1024C0000D928A95E1F7E0918B06F0918C0630979A
:1024D00011F30280F381E02D8CEC92E0DBCF8823B6
:1024E00039F09091D906892B8093D9060E941D124C
:1024F0000895882339F09091E106892B8093E106B5
:102500000E941D120895882321F00E9441090E9413
:102510001D120895882341F080959091E10689234A
:102520008093E1060E941D120895CF93C82F88233F
:10253000B1F18CEF8C0F813AA0F580915101882385
:1025400001F18091DF0687FF1CC0EC2FE695E69530
:10255000E695F0E0EC52FD4F828190E04C2F477001
:1025600021E030E002C0220F331F4A95E2F78223B8
:102570009323892B79F08C2F0E94290E0E941D1223
:1025800009C0EEECF2E08191C817A9F322E0E43D26
:10259000F207C9F78C2F0E94F50D0E941D12CF91F2
:1025A000089580E28C0F883068F4C77081E090E075
:1025B00001C0880FCA95EAF7C091D906C82BC0930D
:1025C000D906EBCF8BE58C0F833038F42C2F2452B7
:1025D000330BC9010E94A90DE2CFC85ACB31F8F6DE
:1025E000EC2FF0E0EE0FFF1FEC56FD4F8081918144
:1025F0000E94CF0DD4CFCF93DF93EC01805E910981
:10260000089720F069E772E1209711F46FE672E114
:10261000CE010E9473088C2F0E949512DF91CF91FA
:102620000895CF93DF93EC01FB018A81823039F466
:10263000828193810E94FB128D8182608D83DF9164
:10264000CF910895FB01808191810E94FB12089532
:10265000882339F19CEF980F913A28F40E94290EB3
:102660000E941D12089590E2980F983050F48770E0
:1026700091E001C0990F8A95EAF7892F0E944109DC
:10268000EFCF9BE5980F933028F480E090E00E9414
:10269000A90D0895885A8B3120F480E090E00E94C3
:1026A000CF0D0895CF93DF93EC010E942813CE0144
:1026B000805E9109089720F06AE872E1209711F492
:1026C00063E872E1CE010E947308DF91CF91089513
:1026D0000F931F93CF93DF938C01EB010E94FB12AA
:1026E000209741F4C8010E945213DF91CF911F91AE
:1026F0000F9108958FE99FE00197F1F700C0000066
:102700002197EECFFB01DC0112968C91813029F4E8
:10271000808191810E94521308958230E9F782816D
:102720009381F8CF0F931F93CF93C82F00E010E051
:10273000893311F400E510E08C2F0E9495120115E9
:10274000110539F48C2F0E942813CF911F910F91FE
:1027500008958FE99FE00197F1F700C00000015054
:102760001109EDCF0E94980D8093CC069091CD0673
:10277000913029F481FF03C089E30E949213809174
:10278000D9068093CB061092D9061092E10680916B
:10279000CD068230C9F030F481110FC082EE0E9464
:1027A000951204C0843021F1853039F18FE39CE922
:1027B0000197F1F700C00000089560E070E088E143
:1027C00093E00E946813F2CF8091CC0680FD03C095
:1027D00083E50E94921382EE0E9495128FE39CE99A
:1027E0000197F1F700C0000087E50E949213DECF49
:1027F00086EE0E94921388E1F8CF60E070E08BE1F2
:1028000091E00E94681360E070E085E290E00E9431
:10281000681360E070E088E290E0D3CFFF920F93FE
:102820001F93CF93DF93E82FF0E0E254F74FF4903B
:10283000282F26952695269530E0F901E255F74F89
:1028400094918770F901E256F74F049110E0082E39
:1028500002C0159507950A94E2F701701127F90156
:10286000E257F74FC491D0E0082E02C0D595C79526
:102870000A94E2F7C170DD27E92FF0E002C0F59578
:10288000E7958A95E2F7E0FD10C001151105C1F446
:102890008F2D0E949213CD2B19F08CE20E9492137F
:1028A000CDB7DEB7E5E00C94763181EE0E9495124B
:1028B0000115110579F48F2D0E94921381EE07C046
:1028C00086EE0E9495128F2D0E94921386EE0E9432
:1028D0002813E1CF86EE0E9495128F2D0E9492134D
:1028E00086EE0E942813EACF1092D90680915101FA
:1028F0008823C1F08091DF0687FF14C0E6EDF2E087
:102900008EE1DF011D928A95E9F780E090E00E9458
:10291000A90D80E090E00E94CF0D1092E1060E9488
:102920001D120895EEECF2E086E0EBCF0E947414E5
:102930002FEF84E39CE0215080409040E1F700C0FD
:10294000000088E19AE00FB6F894A89580936000A3
:102950000FBE90936000FFCFAAE2B0E0E2EBF4E19B
:102960000C945C318BE093E0FC0101962091F10026
:10297000208323E083319207B9F780910C038930DB
:1029800009F456C0C8F4823009F4B2C0833009F4A7
:1029900081C0813071F18091E80083FFE6C08091B1
:1029A0000B0390910C039A3008F0DFC0E92FF0E0A0
:1029B000E35EFD4C0C94A4318A3009F488C08B305E
:1029C00051F780910B03813231F780910F03909181
:1029D0001003892B01F78091E800877F8093E8003E
:1029E0000E94340F80910D03809351010E94741452
:1029F000D2CF80910B03813A71F68091E800877FF6
:102A00008093E80080910F0390911003892B61F06F
:102A100060E080E090E070E00E94DB0E8091E800D2
:102A20008B778093E800B7CF68E083E193E0F3CF42
:102A300080910B03813209F0AECF80910F0390910A
:102A40001003029708F0A7CF8091E800877F80935A
:102A5000E8008091E80082FF18C09091F300809117
:102A6000F200029731F48091F100813011F086304C
:102A700021F48091F10080931B038091E8008B7713
:102A80008093E8000E94340F86CF8091F803811173
:102A9000E0CF81CF80910B03813A09F07CCF809108
:102AA0000F0390911003892B09F075CF8091E800F6
:102AB000877F8093E8008091E80080FFFCCF8091C1
:102AC00051018093F1008091E8008E77D9CF8091F9
:102AD0000B03813209F05FCF8091E800877F8093FC
:102AE000E8000E94340F80910E038093070353CFB8
:102AF00080910B03813A09F04ECF8091E800877FE7
:102B00008093E8008091E80080FFFCCF809107036C
:102B1000D8CF803889F0823841F580910F038F70CB
:102B2000873018F58093E9008091EB0085FB8827BA
:102B300080F91092E90006C0809108039091F70394
:102B4000911182609091E800977F9093E8008093C4
:102B5000F1001092F1008091E8008E7723C081117E
:102B600016C080910D03813011F18091E80083FF40
:102B70000AC08091E800877F8093E8008091EB0095
:102B800080628093EB00AA96E3E00C947831823067
:102B900061F780910D03882389F01092E9008091FC
:102BA000E800877F8093E8000E94340FDECF81E049
:102BB000933009F080E08093F703EFCF80910F030B
:102BC0008F702FEF280F263080F68093E900209138
:102BD000EB0020FFE2CF933031F48091EB00806274
:102BE0008093EB00DACF9091EB0090619093EB0033
:102BF00021E030E0A90102C0440F551F8A95E2F799
:102C00004093EA001092EA008091EB008860E8CFE0
:102C10008111ABCF10910D031F778091E300807875
:102C2000812B8093E3008091E800877F8093E80008
:102C30000E94340F8091E80080FFFCCF8091E30078
:102C400080688093E30083E0111101C082E08093EB
:102C5000F8038BCF8058823008F087CF40910D0366
:102C600050910E034C3D83E0580799F583E08A8329
:102C70008AE289834FB7F894DE01139620E03EE0A4
:102C800051E2E32FF0E050935700849120FF03C0FE
:102C900082958F703F5F8F708A30C8F0895C90E0BA
:102CA0008D939D932F5F243161F74FBF8091E80092
:102CB000877F8093E8006AE270E0CE0101960E946F
:102CC000DB0E8091E8008B778093E8004ECF805D2B
:102CD000E6CF20910F0330911003852F9927833081
:102CE000910509F160F48130910509F472C00297F1
:102CF00009F03BCF8BE390E0EDE1F8E029C08132B1
:102D0000910509F45AC0829709F02FCF211531059A
:102D100009F469C02130310509F027CF8DE690E034
:102D2000ECE6F7E015C0CA0199274130B1F18230D5
:102D3000910509F43AC0892B09F017CFEAE8F8E0C9
:102D4000E4918E2F90E0EAE8F8E0009709F40DCFC7
:102D50002091E800277F2093E80020911103309113
:102D600012038217930708F49C0140E021153105F6
:102D700009F03EC041113CC08091E80082FDA1CF26
:102D80008091F803882309F49CCF853009F499CF0A
:102D90008091E80083FFF0CF94CFE8E7F8E0E4917A
:102DA0008E2F90E0E8E7F8E0D0CFEAE6F8E0E49193
:102DB0008E2F90E0EAE6F8E0C8CF2115310571F0DA
:102DC0002130310509F0D1CE89E090E0E8E4F8E067
:102DD000BFCF82E190E0E8E5F8E0BACF89E090E08B
:102DE000EFE2F8E0B5CF84E490E0E9EDF7E0B0CFB2
:102DF0008091F803882309F464CF853009F461CF0A
:102E00008091E80083FD5DCF8091E80082FDB4CF22
:102E10008091E80080FFAACF9091F3008091F200AA
:102E20002115310519F08830910550F041E00897DF
:102E300009F040E08091E8008E778093E80096CF1B
:102E400044914093F1003196215031090196E8CF29
:102E5000803809F08ACE8091E800877F8093E8006F
:102E6000809109038093F10076CE81117ECE10917E
:102E70000D03123008F079CE8091E800877F8093AF
:102E8000E800109309030E94340F112381F084E0BD
:102E90008093F80342E061EC81E00E94471042E237
:102EA00061EC82E00E9447108091F8035ECE809131
:102EB000E30087FDECCF81E0EBCFCF93DF93EC0114
:102EC0004A855B856E857F850E94930D9B819095D9
:102ED0008091E10689238093E1068C810E9441095B
:102EE0000E941D1286E0FE0111928A95E9F7DF919A
:102EF000CF910895CF93DF93EC018D8181FD17C0B1
:102F000082608D838091E1069B81892B8093E1060D
:102F10008091D9069C81892B8093D9060E941D122D
:102F2000488559856E857F85CE010E94930D10924C
:102F3000C8061092C7068D8180FD03C0CE010E9495
:102F40005D17DF91CF910895A8E0B0E0EAEAF7E1DC
:102F50000C945D3166EE7EEF80E090E00E941532C9
:102F600060E082E090E00E94F73181E08093DC062F
:102F700061E083E090E00E94F73160E074E184E07A
:102F800090E00E94153260E086E090E00E94F73108
:102F90006FEF87E090E00E94F73140E050E0BA0127
:102FA00088E090E00E94093260E084E290E00E94B4
:102FB000F73160E087E190E00E94F73160E08CE05B
:102FC00090E00E94F73160E08DE090E00E94F731E0
:102FD00019821A821B821C821D821E821F82188601
:102FE00048E050E068E170E0CE0101960E94E731D0
:102FF00040E050E0BA0180E290E00E94093240E0F7
:1030000050E0BA018FE090E00E94093240E050E0C9
:10301000BA0183E190E00E9409322896E2E00C9424
:103020007931E1EDF6E085E0808380919301909124
:103030009401A091950181839283A3838FE7848378
:103040008FEF858348E050E068E170E0CF010E9497
:10305000E7311092D0060895A8E0B0E0E2E3F8E18D
:103060000C944E310E94730E6093C7037093C80393
:103070008093C9039093CA032091D106322F3370F5
:103080003983332321F0A22FA695A695A9833091E9
:103090009201323009F4F1C280F4311115C010925E
:1030A00014016093E7037093E8038093E90390931E
:1030B000EA0381E08093920103C0333009F4E6C251
:1030C0002896E1E10C946A3180911301B981B8131B
:1030D00024C02370822F90E04091120150E021E043
:1030E0008417950709F420E0822F817080931601E0
:1030F0008091D60690911501981739F080931501AB
:1031000040E060E080E00E94D20CE981E83038F4D1
:10311000F0E0E95DFD4C0C94A43181E0E6CF8091B4
:1031200014018F5F8093140182E0C4CF8091160157
:10313000811107C0809114018F5F8093140183E097
:10314000B9CF40E060E080E00E94D20C8091140191
:103150008F5F8093140182E0809392018091160129
:103160008111AECFECCF809114010E94EB0C082F9F
:1031700099836091D2067091D3068091D4060E9403
:103180000E0C6D83F72EE82E10E0F9810F1758F022
:103190008F2F0E94960C909114019F5F90931401C1
:1031A00081118ECFC1CFF801E65BFD4F80819091F8
:1031B00015018923882331F02E2D4D816F2DC801F3
:1031C0000E94CF0C0F5F1F4FE0CF809114010E942F
:1031D000EB0C8D83E92E2091D20629830091D30632
:1031E0001091D406622F702F812F0E940E0CD62EC4
:1031F000C72EB82E8091D5066981680F702F812F58
:103200000E940E0C162F072FF82E9D81892F90E01B
:103210009A838983B981BE1510F08E2DBACFE981CA
:10322000FA81E65BFD4F808130911501382333230D
:1032300061F02F2D412F602F80FD03C02B2D4D2DD0
:103240006C2D89819A810E94CF0CA981BA81119637
:10325000BA83A983DFCF809114010E94EB0C192F50
:10326000F090D306E090D4062091D50600E4029FAA
:10327000012D1124E82FF0E0FA83E9833981311719
:1032800010F0812F86CFE981FA81E65BFD4F8081C6
:103290009091150189238823C9F0E981FA81EE0F05
:1032A000FF1FE255FE4F81A982958F706091D20673
:1032B000809F600D11247F2D8E2D0E940E0C462FB5
:1032C000672F282F89819A810E94CF0C29813A810A
:1032D0002F5F3F4F3A832983D1CF809114010E9401
:1032E000EB0CF92EE090D306D090D4062091D506B1
:1032F00000E4029F012D1124A82FB0E0BA83A98316
:1033000010E0F981FF1510F08F2D43CFE981FA818C
:10331000E65BFD4F80819091150189238823F9F0A8
:10332000E981FA81EE0FFF1FE255FE4F20A9209F91
:10333000C001219F900D112425E0959587952A9530
:10334000E1F76091D206680F7E2D8D2D0E940E0C44
:10335000462F672F282F89819A810E94CF0CE981FF
:10336000FA813196FA83E983CCCF809114010E94CF
:10337000EB0C092F3091D5063695369521E0320FAA
:1033800008F43FEF6091E7037091E80340E050E0FC
:10339000639F412D739F400D511D1124142F282F21
:1033A00030E03A8329839981901710F0802FF1CE75
:1033B000E981FA81E65BFD4F8081909115018923B7
:1033C000882399F06091D2067091D3068091D4063B
:1033D000212F49810E94A30C0E940E0C462F672FBB
:1033E000282F89819A810E94CF0C89819A81019628
:1033F0009A838983D8CF809114010E94EB0CC82E48
:1034000099837091D3068091D4066091D206409141
:10341000E7035091E8039091D50696959695969579
:1034200020E030E0499F212D599F200D311D1124AE
:10343000322F36FD2095422F4F7036FD4F5FE22F21
:10344000E695E695E695E670F0E0EA55FE4F918147
:10345000949F902D412D112492959F704295407F0D
:10346000942B2081290F37FD219527FD2195220FCF
:103470003CE0239F212D1124620F0E940E0C162F79
:10348000072FF82ED12CB981CB1610F08B2F81CEBF
:10349000F601E65BFD4F8081909115018923882319
:1034A00031F02F2D412F602FC6010E94CF0CAFEFBE
:1034B000CA1ADA0AE8CF80911601882329F040E081
:1034C00060E080E00E94D20C809114010E94EB0C1D
:1034D000492E4091E7035091E8036091E903709110
:1034E000EA038091E3039091E403A091E503B09196
:1034F000E60384179507A607B70708F0A4C06091F4
:10350000D2067091D3068091D4060E940E0C762EBE
:10351000672E582E0BEC13E0EEEAF1E0FA83E98314
:1035200085E0A82E88E0B82EC980DA8046017801AF
:10353000312C02C033243394D7012D917D01F40145
:1035400081914F0190E0222309F47FC0252D472D62
:10355000662D0E94CF0CD60115968C91252D472DF6
:10356000662D90E00E94CF0CD7018C91F701319726
:103570008083B1E0CB1AD1083320E1F2E981FA81EE
:10358000828190E0D80112962C91222309F468C020
:10359000252D472D662D0E94CF0CE981FA8183816C
:1035A000252D472D662D90E00E94CF0C80911001B3
:1035B000909111018A9DF0018B9DF00D9A9DF00D67
:1035C0001124E75EF94CF0931101E0931001EF0F25
:1035D000E37081E0E11180E0F80182830D5F1F4F0D
:1035E00029813A812A5F3F4F3A8329832E5D3140FA
:1035F00009F09ACF30E18091D506282F230F08F4E7
:103600002FEF822F90E060E070E0839F612D939F09
:10361000600D711D112488EB9BE00E94393180916F
:10362000E7039091E803A091E903B091EA03860FC4
:10363000971FA11DB11D8093E3039093E403A09312
:10364000E503B093E603842DA4CD20E040E060E0E4
:103650000E94CF0CF601858120E040E060E081CF40
:1036600020E040E060E00E94CF0CA981BA8113966F
:103670008C9120E040E060E096CF99819093130117
:103680002370209312010E94D91059CD8091D00649
:10369000882351F048E050E068E170E081ED96E069
:1036A0000E94E7311092D0068091E7039091E803E1
:1036B000A091E903B091EA0389839A83AB83BC8329
:1036C0008091C506882391F069817A818B819C81E4
:1036D0000E94A60E462F572FBC01403151056105AF
:1036E000710508F4EDCC10929201EACC0E94730EA1
:1036F000AB01BC0189819A81AB81BC81481B590B0C
:103700006A0B7B0BEACFA0E0B0E0E9E8FBE10C94A8
:1037100056316B017C012091CD06D701C6013CE1F9
:10372000B695A795979587953A95D1F7B82EC7E0A6
:10373000D0E00CE110E02430D1F539E03B1558F42D
:1037400080E30E940E148091CD06823009F052C0B1
:103750008AEF8B0D11C0BB20A1F180E38B0D0E947D
:103760000E140CC02230C9F789E08B0D90E06AE09E
:1037700070E00E949031875A0E9492132197045062
:103780001109CF3FDC07C1F1D701C601002E04C0EB
:10379000B695A795979587950A94D2F7382F3F70DD
:1037A000B32E8091CD06311104C08230DCCFBB2016
:1037B00041F08091CD068230C1F489E08B1540F252
:1037C000D3CFC330D10571F2219704501109D7012D
:1037D000C601002E04C0B695A795979587950A94C3
:1037E000D2F7382F3F70B32EA6CF86EF8B0D8630E1
:1037F00008F0B3CF87E5B2CFCDB7DEB7E9E00C94E0
:103800007231A8E0B0E0E7E0FCE10C945C3180911B
:103810003F0690914006A0914106B0914206BC013E
:10382000CD010E94A60E11E0643671058105910557
:1038300078F10E94730EDC01CB010296A11DB11D2F
:1038400089839A83AB83BC83809142019091430129
:10385000815B994F20914101422F50E0253010F0BB
:1038600044E050E0BE016F5F7F4F0E94C03183E0B3
:1038700090E00E94C430182F882351F00E94560E09
:1038800060933F06709340068093410690934206F2
:10389000812F2896E3E00C947831A6E0B0E0E3E5D0
:1038A000FCE10C9456318D837B01B42E5E83B9010B
:1038B0006801A8018B2D9E810E94B3318C01D70134
:1038C0008D919D910D90BC91A02DBC01CD010E94C8
:1038D000A60E69837A838B839C8364367105810588
:1038E000910518F40115110539F1BD810B2F0B2E2F
:1038F000000C110B88E0B802F0011124E75DFE4FC7
:1039000081819281815B994F2081422F50E0C416C2
:10391000D50608F4A6016B2D7E810E94C031C80136
:103920000E94C430882349F00E94560ED7016D933F
:103930007D938D939C93139781E02696E9E00C94F8
:1039400072310F931F93AC0104E010E024E536E0E0
:1039500063E476E082E00E944D1C1F910F91089570
:10396000A9E0B0E0E6EBFCE10C945B3188E0E1ED2E
:10397000F6E0DE01119601900D928A95E1F7198625
:1039800009E010E02CE536E0AE014F5F5F4F6BE3DE
:1039900076E084E00E944D1C2996E4E00C94773197
:1039A000EF92FF921F93CF93DF93CDB7DEB72997A6
:1039B0000FB6F894DEBF0FBECDBF7B0180E090E074
:1039C0000E94C430182F81111BC010E0809147065F
:1039D00090914806A0914906B0914A06F70180836C
:1039E0009183A283B383812F29960FB6F894DEBF0B
:1039F0000FBECDBFDF91CF911F91FF90EF90089543
:103A000080912C01482F50E0882311F041E050E0D4
:103A100060912D0170912E01615B794FCE01059669
:103A20000E94C03180914B0690914C06A0914D06AA
:103A3000B0914E06BC01CD010E94A60E6E837F831D
:103A400088879987643671058105910538F480E58A
:103A500096E00E94FF0F9D818917B9F181E090E007
:103A60000E94C430882309F4B0CF80913401482FDC
:103A700050E0853010F044E050E0609135017091E5
:103A80003601615B794FCE0101960E94C03180E51D
:103A900096E00E94FF0F9D81891397CF0E94560EDA
:103AA00060934B0670934C0680934D0690934E06A0
:103AB00089819A81AB81BC818093470690934806A7
:103AC000A0934906B0934A0681CF80915006909109
:103AD0005106A0915206B091530689839A83AB8315
:103AE000BC83E6CFA0E0B0E0E8E7FDE10C945731FD
:103AF0007C016B0164E670E088E70E94852EEC0192
:103B000097FD12C000E010E0F701E00FF11F849173
:103B100064E670E00E94F42EEC010F5F1F4FC016A8
:103B2000D10611F097FFF0CF0E94762F81E0CD2BC8
:103B300009F080E0CDB7DEB7E8E00C947331CF93A5
:103B4000DF93682F81E06A3019F06D3031F480E046
:103B50000E941F1EDF91CF91089580910A049091D9
:103B60000B0426E0FC01A0E0B3E001900D922A9541
:103B7000E1F7603E08F458C026E0FC0111922A9556
:103B8000E9F7C0910A04D0910B0446E050E0BE0171
:103B900080E093E00E94B3319E0123533440892B8F
:103BA00041F1C90145E0969587954A95E1F741E0D5
:103BB00050E0BA0102C0660F771F8A95E2F7CB0189
:103BC0006091350670913606862B972BB9016B5F95
:103BD0007F4FE5E076956795EA95E1F702C0440FDF
:103BE000551F6A95E2F7842B952B909336068093A8
:103BF00035062A5F3F4F40910C04642F70E0C901E5
:103C00000E943931481B463010F4240F311D211514
:103C100072E0370710F020E030E02D5C3B4F30932E
:103C20000B0420930A0496CFF6E06F9FB001112495
:103C3000645D7D4F46E050E00E94AA31A2CFCF9351
:103C4000382FE0910A04F0910B04E353F4402091E3
:103C50000C04622F70E0CF010E943931281B822FA3
:103C6000332361F066E00E948431C82FC15010F404
:103C7000CF91089580E20E949F1DF8CF9F01280FE9
:103C8000311D2115324018F080E0E0E0F0E08E0FA9
:103C90009F2F911D8D5C9B4F90930B0480930A0482
:103CA000E7CFCF93DF93EC01FE018491811103C034
:103CB000DF91CF9108950E949F1D2196F5CF0E941C
:103CC000511E81E00E941F1E08951F921FB61F9271
:103CD00011248F939F93AF93BF938091F60381112B
:103CE00013C080911C0390911D03A0911E03B091FD
:103CF0001F034196A11DB11D80931C0390931D03CA
:103D0000A0931E03B0931F03BF91AF919F918F911A
:103D10001F901FBE1F9018952FB7F89480911C0319
:103D200090911D03A0911E03B0911F032FBF089512
:103D30009C014FB7F89480911C0390911D03A091B2
:103D40001E03B0911F034FBF821B930B08950F9367
:103D50001F93CF93DF93C62FD42F122F8823A9F060
:103D60006093CE060E948C1E9093FF028093FE0209
:103D7000C77081E001C0880FCA95EAF70E946F12F0
:103D8000DF91CF911F910F9108958091CE06681316
:103D900032C08091FE029091FF020E94981E843BE7
:103DA000910548F5CD130CC0812F0E949213D77056
:103DB00081E001C0880FDA95EAF70E948312E0CF14
:103DC000C77001E0802F01C0880FCA95EAF70E94F2
:103DD000831280E28D0F883050F48D2F877001C0E0
:103DE000000F8A95EAF7802F0E946F12DDCF812F96
:103DF0000E949213C5CFC77081E001C0880FCA9599
:103E0000EAF7DBCF8F929F92AF92BF92DF92EF9251
:103E1000FF920F931F93CF93DF9300D000D000D079
:103E2000CDB7DEB77C01DC0114968C91882309F4B0
:103E300066C261E0C7010E949E0B8D839E83F701DD
:103E40008581882341F18091C7069091C80600972B
:103E500011F12D813E8128173907E9F0992754E0A7
:103E6000880F991F5A95E1F7FC01E95AFE4F20810E
:103E7000246020838E5A9E4FED81FE81DC01ED93FC
:103E8000FC930E947A171092E10661E0C7010E943C
:103E90009E0B8D839E83D70115968C912D813E813B
:103EA00037552F3F310511F008F08DC0ED81FE81AF
:103EB000FF2744E0EE0FFF1F4A95E1F78F010E5AEE
:103EC0001E4FE95AFE4F908180FB90F99083882322
:103ED000C1F10E948C1E9093CA068093C906F80116
:103EE00082818F5F82838091E1069091D906892B30
:103EF00083838091DA06848346815781668577853E
:103F0000C8010E94930DD80115968C9181FD16C0B1
:103F10009D818E819093C7068093C806F7018581A5
:103F2000882309F459C1ED81FE81E851FC47E7304F
:103F3000F10560F5E15DFD4C0C94A43190E080E06A
:103F4000E9CFD8011C964D915C911D971E966D91FD
:103F50007C91C8010E94930DF801858181FF2FC0DB
:103F6000C8010E945D172091C7063091C806D7018D
:103F700015968C91ED81FE81E217F30721F41092E2
:103F8000C8061092C706882309F426C1F701858167
:103F900081110CC22D813E8126313C4709F426C196
:103FA0008091D9068272ED81FE81E052F847E531B9
:103FB000F10508F051C0EA5CFD4C0C94A431D70126
:103FC00015968C91E0CF882309F4C3C08091D9065F
:103FD0008272ED81FE81E053FC47E830F10508F084
:103FE000B8C0E55BFD4C0C94A431882339F18FEF08
:103FF0000E94AA11F7018581882391F21092CE06C2
:104000008D819E8186319C4709F0A9C18091D90696
:104010008A7A91E0811101C090E09093CF068111DE
:104020009DC289E20E94F50D0E941D1257C181E0D8
:104030000E94AA11D70115968C91DECF81E0D8CFCE
:104040008111F5CF8FEFF4CF1092CD060E94A3110E
:10405000F70185818111A7C1F70185810081118157
:10406000882309F4E5C2C8010E94730B8983682F75
:10407000C8010E94B408B80189810E9449090E94C0
:104080005A0A8D839983D7011596BC901597169679
:104090000C9102950F708091DE068770882309F1DC
:1040A000DB2CBB20F9F0892F807F803469F08D8173
:1040B000805E8830B0F0892F807E803229F4BD8107
:1040C000B23078F0002369F08091E00682FF09C0E9
:1040D00082E00E94EE118091DE068770DD24D39489
:1040E0008111D12C898182958F70883009F497C312
:1040F00008F0C3C2843008F0A0C219811F7082305A
:1041000008F4CDC24981407F403211F01295107FF2
:104110005D81552309F4FCC2513009F445C3BB202D
:1041200009F44EC3002309F411C3D0C281E0809387
:10413000CD060E94A311D70115968C918BCF82E0FA
:104140008093CD0683CF83E0F2CF84E0F9CF85E082
:10415000EECFF70185812D813E8137FFE4CE8823A4
:1041600009F43AC0ED812115304CE0F08091E10670
:104170009091D906892B9091DA06892B827211E0F1
:10418000811101C010E00E94980D86958170ED812B
:10419000FE81181729F0EE0FEF2FEE1FFF0BF195A0
:1041A000EF77FF2754E0E59FF0011124E856F04F28
:1041B00085909590A590B4908114910481E1A80612
:1041C000B10450F48114910491E0A906B104B0F057
:1041D0008091CD068230B9F4F70185818111B8C094
:1041E0002D813E8126313C4709F036CF8091CF06A4
:1041F0008111B6C189E20E94290E16CF0E94B21326
:10420000C501B4012AC00E94B2138091CD0681116C
:10421000F7CFA1E0AA1AB108D501C4012AE0B695EA
:10422000A795979587952A95D1F79C01AD013852AE
:104230004F4F5F4FCA01B9010E94831B33E09322A5
:10424000AA24BB24D501C4019452AF4FBF4F898328
:104250009A83AB83BC83BC01CD010E94831B8091F8
:10426000CD06823021F130F4811116C082EE0E9419
:10427000281304C0843021F1853021F18091CB06D0
:104280008093D906D70115968C91811161C08D81DB
:104290009E8186319C47A8CF8CE20E949213809128
:1042A000CC0681FFEBCF89E30E949213E7CF82EE29
:1042B0000E9428138091CC0680FDE0CF83E5F4CFE7
:1042C00088E2F2CF60E070E088E290E00E9468133C
:1042D000D5CF26E241EE61EE0E94A71E8091DE0658
:1042E0008770882361F0D70115968C91882339F067
:1042F0008091E00682FF03C082E00E94EE110F90E1
:104300000F900F900F900F900F90DF91CF911F9112
:104310000F91FF90EF90DF90BF90AF909F908F90A4
:10432000089527E245EE65EED7CF26E241EE60EE36
:10433000D3CF27E245EE64EECFCF26E241EE62EE28
:10434000CBCF27E245EE66EEC7CF28E241E0EBCFC8
:104350001092CE068D819E819057839778F1ED81E2
:10436000FE81EA352CE7F20709F45EC108F040C18E
:10437000E1304CE7F40709F455C1E3305CE7F50799
:1043800009F44AC1E115FC4709F066CE0E94741495
:104390002FEF34E34CE0215030404040E1F700C0C3
:1043A00000000E94C60E1092CE06D9CF1092CE0603
:1043B0008D819E819057839708F022CE84E090E013
:1043C0000E94E1319093E0068093DF06ED81FE814B
:1043D000E150F047E232F10520F4ED5AFD4C0C9427
:1043E000A4318091DF0681608093DF066091DF0653
:1043F0007091E00684E090E00E9415320E947414EF
:104400006DCF8091E00688608093E006EFCF8091C9
:10441000DF068260E9CF8091DF068460E5CF80917E
:10442000DF068860E1CF8091E0068160EDCF80916A
:10443000E0068260E9CF8091DF068061D5CF809170
:10444000DF068062D1CF8091DF068064CDCF0E94ED
:1044500074148091DF068068C7CF8091DF068C607E
:10446000C3CF8091E0068360CFCF8091DF068E7F3F
:10447000BBCF8091E006877FC7CF8091DF068D7F1D
:10448000B3CF8091DF068B7FAFCF8091DF06877F30
:10449000ABCF8091E0068E7FB7CF8091E0068D7F15
:1044A000B3CF8091DF068F7E9FCF8091DF068F7D17
:1044B0009BCF8091DF068F7B97CF0E9474148091F1
:1044C000DF068F7791CF8091DF06837F8DCF80913C
:1044D000E0068C7F99CF8091DF0682FB992790F9C7
:1044E00021E0922790FB82F990FB83F97DCF8091A8
:1044F000E006982F909591708E7F892B90FB81F923
:1045000083CF9091DF06892F8F7B96FF80646CCFDD
:104510000E9474149091DF06892F97FB87F98058C9
:1045200063CF61E08EE090E00E94F7315FCF60E002
:10453000F9CF9091DF06892F8F7E94FF806154CF51
:104540009091DF06892F8E7F90FF81604DCF9091F3
:10455000E006892F877F93FF886056CF85E362CD81
:1045600085E349CE8091D10691E089278093D106D9
:10457000109292018091D00681608093D006AECED9
:104580004BE350E160E370E10E944A0DA7CE40E3A7
:1045900050E16BE370E1F8CF41EC5FE067EB7FE067
:1045A000F3CF47EB5FE061EC7FE0EECF48ED5FE0FB
:1045B0006BEC7FE0E9CF4BEC5FE068ED7FE0E4CFB0
:1045C00042EF5FE065EE7FE0DFCF45EE5FE062EF58
:1045D0007FE0DACF4DE05DE06FEF7CE0D5CF4FEFCD
:1045E0005CE06DE07DE0D0CF81E00E94181076CED7
:1045F000AD81BE81AB35ECE7BE07C1F0AC35BC4741
:1046000009F02ACD8091E00682FB882780F991E0AD
:1046100089270E94061220CD6FEF7FEF80E090E0A7
:104620000E9415320E94961481E0F3CF80E0F1CF12
:10463000C8010E94E30889831ECD843009F4D2C0EA
:10464000DD20B1F08091DE0680FD12C0D701159605
:104650001C928695869586950E94D211C7010E946C
:10466000021F8091DE068695869586950E94DE1152
:1046700060E0C7010E949E0B42CE893009F457C109
:104680008A5F8F708230E0F6ED81E23F09F062C10F
:1046900089818F71B1105BC10E94D211F4C0F98180
:1046A000F03110F01295107FBB20C1F0112371F092
:1046B0008D81805E883018F02D81211109C0809194
:1046C000D906812B8093D9060E941D128D8130C09E
:1046D0008091E106812B8093E106F6CF8D810E94C7
:1046E0002813112309F4ACCF8D81805E883018F037
:1046F0003D81311104C0812F0E94410906C01095EF
:104700008091E10681238093E1060E941D1298CFDB
:104710008091E00682FD16C0BB2069F0112339F0BC
:104720008091D906812B8093D9060E941D1280E0CA
:104730000E94951285CF80E00E942813112309F46E
:104740007FCFD9CFBB20A1F0011104C0812F0E94DF
:104750006F1276CF013009F073CF8091DA06912F76
:104760009823191709F46CCF812B8093DA0668CF50
:10477000011166CF812F0E9483129091DA06812F5A
:104780008923882329F0812F809589238093DA0655
:104790008091DB06912F9823992309F451CF10952E
:1047A00018231093DB064CCFBB2021F0023008F019
:1047B00047CFCCCF011144CF812F0E94831240CF2D
:1047C0000023D1F38D81893349F49FEFA7EEB3E045
:1047D0009150A040B040E1F700C000008D810E94E0
:1047E00028132ECF8981869586958370882369F05A
:1047F000813009F025CF8D8199819370B11002C06D
:1048000080E090E00E94CF0D1BCF8D819981937045
:10481000B11002C080E090E00E94A90D11CF898103
:104820008370811140C0B1102EC04D8142954695D4
:104830004770440F440F8D818F70042E01C0880F84
:104840000A94EAF7ED81E071ED83EE2349F02FE061
:1048500030E001C0220F4A95EAF7F22FF095FD8370
:1048600029812695269523702983223099F02330BB
:10487000B9F02091DC063981313041F04D81842B33
:1048800082230E94B1080E94980DDACE822B5D81AE
:10489000852BF7CFAD818A2B9091DC068927F1CF4C
:1048A000BD818B2BEECFBB2089F1E981E0FFEBCFFF
:1048B0004D81429546954770440F440F8D818F700E
:1048C000042E01C0880F0A94EAF7FD81F071FD8380
:1048D000FF2349F02FE030E001C0220F4A95EAF7AC
:1048E000422F40954D835981569556955370598363
:1048F0005230A1F05330C1F02091DD06513051F01B
:10490000AD818A2B82230E94C711BDCF823008F46B
:10491000BACFCECF822BBD818B2BF5CFED818E2BE5
:104920009091DD068927EFCFFD818F2BECCF298178
:104930002F702983BB2039F0822F0E94D2118D81E4
:104940000E946F12A0CF8D810E94831289810E94E4
:10495000DE1199CF3D81333F78F4303FC9F0313FCC
:1049600009F43FC0BB2009F467C0002309F461C00B
:104970008D810E94951287CF4D81433F09F1443FBD
:1049800061F1B110F2CF011166C089818F71DFCF63
:10499000BB2091F0011177CF59815F7181E090E0E8
:1049A000DC0102C0AA0FBB1F5A95E2F7BA83A983A4
:1049B0008091DD068A27A7CF023008F064CFECCFC4
:1049C00080E0BB2009F49FCFB981BF71B98381E03A
:1049D00001C0880FBA95EAF796CF8091E00682FD74
:1049E00006C089818F71BB2009F4B1CF55CEBB20A1
:1049F000B1F0E981EF71E9838E2F0E94D21180918D
:104A0000E00682FF0AC02981F8E02F9FC00111242F
:104A100083608093DE06822F3FCE89813DCE81E088
:104A20000E94EE11023008F42ECF82E00E94EE11B7
:104A30002ACF89818F7130CE002309F4A6CF3D8122
:104A4000393349F44FEF57EE83E0415050408040F6
:104A5000E1F700C000008D810E94281314CF8091DF
:104A60002207803178F480912107882359F0E09162
:104A7000E3062091E20630911D0740911C0757E0A4
:104A80002E1301C008956E2F70E05E9FF001112477
:104A9000DF01AC51B94F14968C911497882361F1C2
:104AA00011968C911197831327C08C91841324C085
:104AB00015968C91159781111FC012968D919C911E
:104AC000A0911E07B0911F078A1B9B0B843B910589
:104AD00098F4809122078F70806180932207E651BD
:104AE000F94F80818F70806180838CE197E00E9414
:104AF000021F0E9411090895FB013196E770C0CF93
:104B0000ADE0B0E0E6E8F5E20C9453318C0186E0CC
:104B1000F801DE01189601900D928A95E1F7D8010F
:104B20009C911596DC9015971296AD90BC901397BA
:104B30001496FC9014978CE1882E87E0982EC090F4
:104B40002007C11020C0FF20D9F0DD2009F453C197
:104B5000C8010E94CD0B882309F44DC187E0F801FC
:104B6000D40101900D928A95E1F7B1E0FB1206C0E5
:104B700080911C0790911D070E94BE0B0E942F255B
:104B8000FF24F39432C0E090210720911E0730915A
:104B90001F07F501E21BF30BEE2009F4FCC0E43B18
:104BA000F10508F0DAC0FF2059F330911D07119686
:104BB0002C91119780912207803108F093C0FD2C31
:104BC000231318C030911C07391314C0D11084C0AE
:104BD0008F708061809322078CE197E00E94021F12
:104BE00080912207F8018683F12C8F2D2D96ECE021
:104BF0000C946F31D11070C0E091E3068091E20611
:104C0000AE2F37E0A81317C037E08E1337C0888562
:104C100099850E94BE0B292F22952F70903408F49D
:104C200041C02A5F2F70223008F450C0C8010E9492
:104C3000021FFE2CDACF4A2F50E03A9FD0011124F8
:104C4000AC51B94F11966C911197261307C06C9116
:104C5000961304C015966C91611104C0DA01119687
:104C6000A770D0CF8CE197E00E94021F87E0ECE1B3
:104C7000F7E0DF011D928A95E9F7B6CF4E2F50E09D
:104C80003E9FF0011124EC51F94F6181261306C0BB
:104C90006081961303C065816111A6CFFA01319638
:104CA000E770B3CF9F70223038F0992351F0F801AC
:104CB0009681903130F499CF992319F0882309F423
:104CC00094CF805E883008F490CFB0CF803F08F456
:104CD0008CCF815F8230F7CF8091220781608093F3
:104CE000220782CF231314C020911C07291310C060
:104CF000D1100EC016968C93C8010E94021F87E047
:104D0000F801ACE1B7E001900D928A95E1F738CF58
:104D1000C8010E94CD0B882309F46DC0DD2009F481
:104D20006AC080912207803278F020911C07309170
:104D30001D073A832983BC82AB82CD821E828F837A
:104D4000CE0101960E94021F87E0F801ACE1B7E0B6
:104D500001900D928A95E1F711CF80912207803161
:104D600008F480CFFF2009F40BCF30911D07F80124
:104D700021813213CDCF20911C072913C9CFD11027
:104D8000C7CF8683C8010E94021F87E0D4011D920D
:104D90008A95E9F7F5CEE43BF10588F5FF2009F4A3
:104DA000EFCEDD2041F120911D07F801818128130C
:104DB00018C080911C07891314C08091220780FDC0
:104DC0009ECF803108F49BCF8683807F803F09F49B
:104DD00093CF8681982F907F905F8F70892B8683E9
:104DE0008BCFC8010E94CD0B8111AECF80912207DD
:104DF000816080932207C8010E94021FC1CE87E014
:104E0000D40138CFABE1B0E0E8E0F7E20C945C31DC
:104E10004E8B5F8B688F798F8A8F9B8F9111109249
:104E2000E1061D8A86E0FE017696DE011F9601905E
:104E30000D928A95E1F78B89882329F061E0CE01F4
:104E40000F960E949E0B87E0FE013F96DE011896AA
:104E500001900D928A95E1F7CE0108960E94802577
:104E600081112BC087E0FE013896DE01119601907A
:104E70000D928A95E1F72091E2064091E3068C8538
:104E80008823D9F030E0C90101968770992750E056
:104E900084179507E9F097E0929FD001939FB00D9A
:104EA0001124AC51B94FFE01319601900D929A95A3
:104EB000E1F78093E2060E94110917E08091E30672
:104EC0009091E206891312C06B96E3E00C9478315E
:104ED0000E9474141092E2061092E30687E0ECE15F
:104EE000F7E0DF011D928A95E9F7E7CF189FC0012F
:104EF00011248C51994F0E948025882329F3809199
:104F0000E30690E00196877099278093E306D6CF59
:104F1000A6E0B0E0EEE8F7E20C945B310E948C1E54
:104F20008C018091690690916A068017910779F04B
:104F300019821A820E948C1EBC0149815A8180E02C
:104F400090E00E94022710936A0600936906269655
:104F5000E4E00C947731A0E1B0E0E1EBF7E20C94EF
:104F600052311A821982FE01339686E0DF011D92CA
:104F70008A95E9F780E8A82E82E0B82E8E010F5FAF
:104F80001F4F4801EE24E394F12C2AE8C22E22E0C0
:104F9000D22EF50181915F018F3F09F441C0F89451
:104FA000E82FE295EF70F0E021A18F70A70102C019
:104FB000440F551F8A95E2F7CA01922F982B91A3AF
:104FC00092A18095892382A3789400C0E4E8F2E05E
:104FD00031E0712C21912F3F09F497C0A22FA295A7
:104FE000AF70A05EB0E08C9190E02F7002C09595FC
:104FF00087952A95E2F78170811187C0832F782ADF
:10500000330FCE16DF0631F7F501319780818F3FE0
:1050100011F00E94F50B50EA5A95F1F7D8017C92F5
:105020000F5F1F4FB4E8AB16B2E0BB0609F0B1CF7B
:1050300048E050E0B4018BEE93E00E94B331009160
:10504000F40310E007501C4F892B09F460C088E07E
:10505000F401ABEEB3E001900D928A95E1F781E0A7
:105060008093FD020E948C1E9093FC028093FB02B1
:105070008091C506882309F4A3C01A8619861C8668
:105080001B86809106038A3008F063C07E01E9E048
:10509000EE0EF11C40ED5CE1B701C8010E94691100
:1050A0006701882309F47AC041EA5CE1B701C801CD
:1050B0000E946911882309F471C041E05CE1B701E5
:1050C000C8010E946911882309F468C040EB5CE1C3
:1050D000B701C8010E946911882309F45FC01092CA
:1050E00006038091F30390E044E050E0B60187505E
:1050F0009C4F0E94B33121E02093FA02892B09F0E2
:105100003FC06096EDE00C946E3180E078CF8091E6
:10511000FD02882309F4ACCF8091FB029091FC0240
:105120000E94981E059708F4A3CF44E050E06BEE70
:1051300073E0C8010E94B331892B41F084E0EBEEAB
:10514000F3E0D80101900D928A95E1F71092FD02EB
:105150008FCF8091F8029091F9020E94981E843FAF
:10516000914008F093CF8091FA02882351F2FE011A
:10517000399684E0DF011D928A95E9F71092FA02D0
:10518000E091F303F0E0E750FC4F89859A85AB8509
:10519000BC8580839183A283B383B3CF80910603C0
:1051A0008F3F39F40E948C1E9093F9028093F8028D
:1051B000DACF8F5F809306038A3008F492CFF2CF64
:1051C000E090F303F12CF701E750FC4F7F01F80169
:1051D00080819181A281B381809350069093510682
:1051E000A0935206B093530680E596E00E94FF0F0D
:1051F00080934F068091540690915506A0915606D3
:10520000B0915706F70180839183A283B383C09046
:105210005806D0905906E0905A06F0905B068091AF
:10522000F4029091F502A091F602B091F702C8162F
:10523000D906EA06FB06B1F0C092F402D092F5025C
:10524000E092F602F092F7020E94560EC61AD70AB2
:10525000E80AF90AC0926506D0926606E0926706EF
:10526000F092680688E0ECE5F6E0A1EDB6E001908A
:105270000D928A95E1F745CFCDB7DEB762970FB6AD
:10528000F894DEBF0FBECDBF85B7806885BF85B7F8
:10529000806885BF84B7877F84BF0FB6F894A895D0
:1052A00080916000886180936000109260000FBE62
:1052B00080E890E00FB6F8948093610090936100CD
:1052C0000FBE83EF9BE09093CB028093CA020E94B3
:1052D000840F0E947E108091E20084608093E2003F
:1052E00078948091F803882399F08091E9001091D7
:1052F000EC001795112717958F70182B1092E90065
:105300008091E80083FD0E94AC141F701093E900A7
:1053100082E084BD93E095BD9AEF97BD80936E00C7
:105320001092650610926606109267061092680643
:1053300088EC90E02091E300122F111F1127111F1C
:1053400027FD0DC0AFE3BCE91197F1F700C00000E5
:105350000197009779F70E94840F1092F803109339
:10536000C50680E090E00E94E131863E9E4F11F03C
:105370000E94A4178EE090E00E94D93191E0811143
:1053800001C090E09093C606909317018091C506E6
:1053900081110E94D62F809117018091170191E011
:1053A0008927880F880F8093F40394E0981B9093CB
:1053B000F30384E90E94F50B86E60E94F50B87E96A
:1053C0000E94F50B86EC0E94F50B04E812E0F80150
:1053D00081918F018F3F11F00E94F50BF2E00A38A6
:1053E0001F07A9F788E0E9EFF3E0DF01282F1D92FE
:1053F0002A95E9F7EBEEF3E0DF011D928A95E9F7D4
:1054000080E090E00E94E131863E9E4F11F00E94C4
:10541000A41782E090E00E94D9318093010484E0D7
:1054200090E00E94E1319093E0068093DF060E94B5
:10543000AB27EFEFF6E721E0E150F0402040E1F745
:1054400000C000000E94AB27E091C60681E0E8277B
:10545000EE0FEE0FF0E0E750FC4F808181FF08C0B7
:105460006FEF7FEF80E090E00E9415320E94C60E41
:1054700083E090E00E94D9310E94B1088091C50676
:1054800081110E94B2110E941B0D80E090E00E94E9
:10549000E131863E9E4F21F00E94A4170E94111810
:1054A00081E08093D00648E050E068E170E081ED53
:1054B00096E00E94C9311092D0068091D1068430C6
:1054C00010F40E9411188CE090E00E94D931809372
:1054D000CD061092F503843009F099C08091C5067D
:1054E000882309F498C093E080E290933306809378
:1054F0000C040E947F2E6BE070E085E59AE00E942C
:10550000721D8823E9F08091330665E070E081FD2B
:1055100085C080E59AE00E94721D882389F06DE0C5
:1055200070E08EE39AE00E94721D882349F00E9489
:10553000B21181E0809339068093120410923406F0
:105540008091C506811102C00E94D92F88E191E0A7
:1055500090938C0680938B06662463948091F80365
:10556000853049F48091F803853009F45AC00E94CF
:1055700074140E94980D0E94AB2702E014E079EFAA
:10558000E72E73E0F72ED701F80191918D9124E079
:10559000EA30F20709F4AAC09817B9F38090C5065B
:1055A000D12CD701CD907D01F80191908F019C14F1
:1055B00039F19C24B12CAA24A3948A2D8921882313
:1055C000B9F08820A9F0B982DA820E948C1E9C83EF
:1055D0008B836D8291E08A2D8C21811101C090E036
:1055E0009E8349815A816B817C818D810E94022733
:1055F000B394AA0CF6E0BF12E0CFF8013197C08255
:10560000D39428E0D212CDCF0E94730E73C084E0F1
:105610008093CD0663CF92E080E867CF8BE49AE079
:105620007ACF8091F803843009F437C00E942C1897
:1056300080913906882369F080911204882349F00B
:1056400062E070E080E69AE00E94721D8111109283
:1056500012041092F60388E190E0A0E40FB6F894EB
:10566000A895809360000FBEA093600083B7817FF0
:10567000846083BF83B7816083BF7894889583B744
:105680008E7F83BF0FB6F894A895809160008861E3
:1056900080936000109260000FBE8091F703882312
:1056A00009F460CF0E94AB27E9EFF3E0819181110B
:1056B00005C0B4E0E130FB07C9F754CF80E189BDF4
:1056C00082E189BD09B400FEFDCF8091D8008F7DB5
:1056D0008093D8008091E00082608093E000809108
:1056E000E00081FDFCCF0E9474143CCF981356CF8C
:1056F0000E9488278091C506882309F10091C7067A
:105700001091C80601151105D1F08091C90690913C
:10571000CA060E94981E853B910588F0C80199270A
:1057200064E0880F991F6A95E1F7FC01E95AFE4F82
:10573000208122FD04C08E5A9E4F0E947A170E943B
:105740002C1880913906882309F4A2C0809137066D
:10575000909138060E94981EC29708F472C00E9469
:105760008C1E909338068093370683E394E09093E1
:105770000B0480930A048091C506882309F4B2C003
:105780000E94980D182F8FEE9CE00E94511E809170
:10579000DD060E949F08E82F82E69CE0E73098F43F
:1057A000F0E0EB58FD4C0C94A43184EE9CE00E9498
:1057B0005F1E84ED9CE011FD02C08AEC9CE00E941B
:1057C000511E81EE9CE00E945F1E88E0E6E9F1E058
:1057D000DE01199601900D928A95E1F788E0EEE9D5
:1057E000F1E0DE01119601900D928A95E1F780912A
:1057F0000E0490910F040E94981E8135910508F1C6
:105800000E948C1EA0E0B0E080930E0490930F04E1
:10581000A0931004B093110480910D048F5F8370E6
:1058200080930D0490E0880F991FE1E0F0E0EC0F09
:10583000FD1FE80FF91F60817181808591850E94AD
:10584000510D8091350690913606892B09F1809192
:1058500039068823E9F080913406811119C08091BE
:10586000120481110BC062E070E086EF9CE00E94A0
:10587000721D882319F031E030931204209135060F
:105880003091360680E061E070E02115310581F548
:105890000E94980D90913A06891709F45FCE809383
:1058A0003A060E94560E5ACE8FEB9CE08CCF83EBCB
:1058B0009CE089CF88EA9CE086CF8DE99CE00E943D
:1058C0005F1E8DE89CE011FD02C083E89CE00E9411
:1058D000511E8AE99CE077CF88E79CE074CF8AE686
:1058E0009CE071CF60E072E082E69AE0A8CF8F5F23
:1058F000082F10E07B01082E02C0EE0CFF1C0A945A
:10590000E2F7A70142235323452B89F390913306F5
:1059100090FD43C098013695279536952795922F8F
:105920008295880F80763FE1380F80932401209381
:105930002701309325019093280124E630E047E0C9
:1059400050E062E271E088E70E94242F892B09F081
:105950009FCFA80125E0440F551F2A95E1F78091BC
:10596000330680FD22C04D5C5B4F04E610E020E270
:1059700030E060E488E70E944B2F892B09F088CF44
:10598000E094F0948091350690913606E822F92251
:10599000F0923606E09235067BCF880F880F880F8D
:1059A00037E0380F20E093E0C0CFE3E1F4E080E29D
:1059B000DF011D928A95E9F7EEE8F2E0FA8BE98BB8
:1059C0000AE812E082E9282E82E0382E97E0A92E1C
:1059D00099249394A989BA896D91BA8BA98BF801FE
:1059E00081918F01840F952F911D9C012D5C3B4F60
:1059F0002901E62FF0E0ED5EFB4F20E030E07A2C4D
:105A0000721AB92C022E01C0BB0C0A94EAF762018B
:105A100090E0D6018D916D018B21672D691B677018
:105A200070E0B82F062E01C0BB0F0A94EAF77195FB
:105A3000619571096770772701C086956A95EAF7C5
:105A40008B2B6081862B80839F5F983011F72F5FAF
:105A50003F4F31962830310591F6E989FA892E16A3
:105A60003F0609F0B7CF04E610E020E230E043E162
:105A700054E07FCF78941F921FB61F9211248F930A
:105A80009F93AF93BF9380911C0390911D03A091AE
:105A90001E03B0911F030196A11DB11D80931C032D
:105AA00090931D03A0931E03B0931F03BF91AF916A
:105AB0009F918F911F901FBE1F9018951F920F925C
:105AC0000FB60F9211242F933F934F935F936F93D1
:105AD0007F938F939F93AF93BF93EF93FF938091A7
